:100000000C942A000C9447000C9447000C94470071
:100010000C9447000C9447000C9447000C94470044
:100020000C9447000C9447000C9447000C94470034
:100030000C9447000C9447000C9447000C94470024
:100040000C9447000C9447000C9447000C94470014
:100050000C94470011241FBECFE5D8E0DEBFCDBF12
:1000600011E0A0E6B0E0EEE8F7E402C005900D92E2
:10007000A03CB107D9F711E0A0ECB1E001C01D929E
:10008000A83CB107E1F70E940F220C94C5230C9401
:100090000000EF92FF920F931F937B018C0120E0F1
:1000A00030E040E05FE40E94250488238CF0C80122
:1000B000B70120E030E040E05FE40E94C1010E940F
:1000C00013059B01AC01205030404040504806C011
:1000D000C801B7010E9413059B01AC01B901CA0117
:1000E0001F910F91FF90EF900895A0E0B0E0EBE733
:1000F000F0E00C948922DC012B01FA019C919230F2
:1001000008F439C1EB018881823008F433C194309E
:1001100069F4843009F02FC111969C91119789815F
:10012000981709F428C1A2E9B0E025C1843009F488
:1001300021C18230A9F4923009F01DC19A01AD01AC
:1001400088E0EA010990AE01E90109929E0181501F
:10015000C1F7E201898111969C918923818308C1AD
:10016000923009F407C112962D903C901397EB0141
:100170008A819B811496AD90BD90CD90DC901797AD
:10018000EC80FD800E811F819101281B390BB90184
:1001900037FF04C066277727621B730B6032710537
:1001A0000CF061C0121613066CF537014801062EDB
:1001B00004C096948794779467940A94D2F721E0C8
:1001C00030E040E050E004C0220F331F441F551FB1
:1001D0006A95D2F721503040404050402E213F21B7
:1001E00040235123211531054105510521F021E01E
:1001F00030E040E050E079018A01E628F72808293C
:1002000019293CC0232BD1F1260E371E350146019A
:10021000062E04C096948794779467940A94D2F734
:1002200021E030E040E050E004C0220F331F441FC3
:10023000551F6A95D2F721503040404050402A2146
:100240003B214C215D21211531054105510521F04E
:1002500021E030E040E050E059016A01A628B728CB
:10026000C828D9280BC0821593052CF01C01AA249C
:10027000BB24650103C0EE24FF24870111969C91E5
:10028000D20111968C91981709F445C0992339F041
:10029000A80197012A193B094C095D0906C0A6016E
:1002A00095012E193F09400B510B57FD08C01182D3
:1002B0003382228224833583468357831DC081E0A5
:1002C00081833382228288279927DC01821B930B4A
:1002D000A40BB50B84839583A683B7830DC0220F2F
:1002E000331F441F551F24833583468357838281E0
:1002F000938101979383828324813581468157813D
:10030000DA01C9010197A109B1098F5F9F4FAF4F72
:10031000BF4328F30BC0918333822282EA0CFB1C7B
:100320000C1D1D1DE482F5820683178383E0808304
:10033000248135814681578157FF1AC0C901AA27F8
:1003400097FDA095BA2F81709070A070B0705695EF
:10035000479537952795822B932BA42BB52B848318
:100360009583A683B7838281938101969383828349
:10037000DF0101C0D201CD01CDB7DEB7E2E10C94BF
:10038000A522A0E2B0E0E7ECF1E00C9495226983AD
:100390007A838B839C832D833E834F835887E9E048
:1003A000EE2EF12CEC0EFD1ECE010196B7010E943F
:1003B00004078E010F5E1F4FCE010596B8010E9403
:1003C00004078A8991E089278A8BC701B801AE01A9
:1003D000475E5F4F0E9475000E942F06A096E6E0E0
:1003E0000C94B122A0E2B0E0E8EFF1E00C94952289
:1003F00069837A838B839C832D833E834F835887C5
:10040000F9E0EF2EF12CEC0EFD1ECE010196B701A6
:100410000E9404078E010F5E1F4FCE010596B801A2
:100420000E940407C701B801AE01475E5F4F0E94FA
:1004300075000E942F06A096E6E00C94B122A0E27F
:10044000B0E0E5E2F2E00C94892269837A838B8341
:100450009C832D833E834F835887CE010196BE0136
:10046000675F7F4F0E940407CE010596BE016F5E55
:100470007F4F0E9404079985923088F089898230E5
:10048000C8F0943019F4823051F404C0843029F457
:10049000923081F482E990E0C6C0923049F420E0C5
:1004A0009A858A89981321E02A87CE010996BBC0D4
:1004B000823049F420E09A858A89981321E02A8BBA
:1004C000CE014196B0C02D843E844F8458886D88FB
:1004D0007E888F88988CEE24FF248701AA24BB2471
:1004E000650140E050E060E070E0E0E0F0E0C10174
:1004F00081709070892BE9F0E60CF71C081D191D1E
:100500009A01AB012A0D3B1D4C1D5D1D80E090E062
:10051000A0E0B0E0E614F7040805190520F481E036
:1005200090E0A0E0B0E0BA01A901480F591F6A1F8E
:100530007B1FAA0CBB1CCC1CDD1C97FE08C081E0F5
:1005400090E0A0E0B0E0A82AB92ACA2ADB2A3196B6
:10055000E032F10549F0660C771C881C991C569412
:10056000479437942794C3CFFA85EA892B893C892D
:100570008B859C85280F391F2E5F3F4F17C0CA01FE
:1005800081709070892B61F016950795F794E79428
:1005900080E090E0A0E0B0E8E82AF92A0A2B1B2BC3
:1005A00076956795579547952F5F3F4F77FDE7CF36
:1005B0000CC0440F551F661F771F17FD4160EE0CDE
:1005C000FF1C001F111F21503040403090E05907A0
:1005D00090E0690790E4790760F32B8F3C8FDB0193
:1005E000CA018F779070A070B07080349105A1051A
:1005F000B10561F447FD0AC0E114F10401051105DC
:1006000029F0405C5F4F6F4F7F4F40781A8EFE1786
:1006100011F081E08A8F4D8F5E8F6F8F78A383E01A
:10062000898FCE0149960E942F06A096E2E10C9494
:10063000A522A8E1B0E0EFE1F3E00C9491226983F8
:100640007A838B839C832D833E834F835887B9E0C5
:10065000EB2EF12CEC0EFD1ECE010196B7010E948F
:1006600004078E010F5E1F4FCE010596B8010E9450
:1006700004072985223008F47EC03989323010F40D
:10068000B8017CC08A859A8989278A87243011F02D
:10069000223031F4231709F06EC062E970E06EC0B9
:1006A000343039F41D861E861F86188A1C861B86E8
:1006B00004C0323021F484E08987B7015FC02B8504
:1006C0003C858B899C89281B390B3C872B87ED84C3
:1006D000FE840F851889AD88BE88CF88D88CEA142F
:1006E000FB040C051D0540F4EE0CFF1C001F111F40
:1006F000215030403C872B8720E030E040E050E044
:1007000080E090E0A0E0B0E460E070E0EA14FB0478
:100710000C051D0540F0282B392B4A2B5B2BEA18C2
:10072000FB080C091D09B695A79597958795EE0CC2
:10073000FF1C001F111F6F5F7F4F6F31710531F775
:10074000DA01C9018F779070A070B0708034910584
:10075000A105B10561F427FD0AC0E114F10401050A
:10076000110529F0205C3F4F4F4F5F4F20782D87B8
:100770003E874F87588BBE01675F7F4FCB010E943A
:100780002F066896EAE00C94AD22A8E1B0E0EBEC0D
:10079000F3E00C94952269837A838B839C832D8369
:1007A0003E834F83588789E0E82EF12CEC0EFD1E26
:1007B000CE010196B7010E9404078E010F5E1F4F04
:1007C000CE010596B8010E9404078985823040F069
:1007D0008989823028F0C701B8010E947C0701C0D6
:1007E00081E06896E6E00C94B122A8E1B0E0EBEF7E
:1007F000F3E00C94952269837A838B839C832D8309
:100800003E834F83588789E0E82EF12CEC0EFD1EC5
:10081000CE010196B7010E9404078E010F5E1F4FA3
:10082000CE010596B8010E9404078985823040F008
:100830008989823028F0C701B8010E947C0701C075
:100840008FEF6896E6E00C94B122A8E1B0E0EBE20D
:10085000F4E00C94952269837A838B839C832D83A7
:100860003E834F83588789E0E82EF12CEC0EFD1E65
:10087000CE010196B7010E9404078E010F5E1F4F43
:10088000CE010596B8010E9404078985823040F0A8
:100890008989823028F0C701B8010E947C0701C015
:1008A0008FEF6896E6E00C94B122A8E1B0E0EBE5AA
:1008B000F4E00C94952269837A838B839C832D8347
:1008C0003E834F83588789E0E82EF12CEC0EFD1E05
:1008D000CE010196B7010E9404078E010F5E1F4FE3
:1008E000CE010596B8010E9404078985823040F048
:1008F0008989823028F0C701B8010E947C0701C0B5
:1009000081E06896E6E00C94B122A8E1B0E0EBE863
:10091000F4E00C94952269837A838B839C832D83E6
:100920003E834F83588789E0E82EF12CEC0EFD1EA4
:10093000CE010196B7010E9404078E010F5E1F4F82
:10094000CE010596B8010E9404078985823040F0E7
:100950008989823028F0C701B8010E947C0701C054
:1009600081E06896E6E00C94B122A8E0B0E0EBEB01
:10097000F4E00C9492229B01AC0183E08983DA01BC
:10098000C9018827B7FD83959927AA27BB27B82EC9
:10099000211531054105510519F482E089833AC0DA
:1009A0008823A9F0203080E0380780E0480780E8FD
:1009B000580729F460E070E080E09FEC30C0EE243E
:1009C000FF248701E21AF30A040B150B02C0790118
:1009D0008A018EE1C82ED12CDC82CB82ED82FE8290
:1009E0000F831887C801B7010E94E0050197181608
:1009F000190684F4082E04C0EE0CFF1C001F111F02
:100A00000A94D2F7ED82FE820F831887C81AD90A9A
:100A1000DC82CB82BA82CE0101960E942F062896F4
:100A2000E9E00C94AE22ACE0B0E0E9E1F5E00C9432
:100A3000992269837A838B839C83CE010196BE01C0
:100A40006B5F7F4F0E9404078D81823061F182309D
:100A500050F1843021F48E81882351F12EC02F81F2
:100A6000388537FD20C06E812F3131051CF066239B
:100A7000F9F023C08EE190E0821B930B29853A8523
:100A80004B855C8504C056954795379527958A9583
:100A9000D2F76623B1F050954095309521953F4FA0
:100AA0004F4F5F4F0EC020E030E040E050E009C003
:100AB0002FEF3FEF4FEF5FE704C020E030E040E072
:100AC00050E8B901CA012C96E2E00C94B522A8E0E6
:100AD000B0E0EDE6F5E00C9491227B018C0161150C
:100AE00071058105910519F482E0898360C083E076
:100AF00089838EE1C82ED12CDC82CB82ED82FE82EE
:100B00000F831887C801B7010E94E005FC013197E7
:100B1000F7FF3BC0222733272E1B3F0B57016801ED
:100B2000022E04C0D694C794B794A7940A94D2F71F
:100B300040E050E060E070E081E090E0A0E0B0E0F4
:100B400004C0880F991FAA1FBB1F2A95D2F70197CF
:100B5000A109B1098E219F21A023B1230097A105EE
:100B6000B10521F041E050E060E070E04A295B29E6
:100B70006C297D294D835E836F8378878EE190E0B9
:100B80008E1B9F0B9C838B8312C0309781F00E2E9F
:100B900004C0EE0CFF1C001F111F0A94D2F7ED8257
:100BA000FE820F831887CE1ADF0ADC82CB821A827C
:100BB000CE0101960E942F062896EAE00C94AD2201
:100BC000EF92FF920F931F937B018C0180E0E81658
:100BD00080E0F80681E0080780E0180788F48FEFCE
:100BE000E816F1040105110531F028F088E090E0E5
:100BF000A0E0B0E017C080E090E0A0E0B0E012C05C
:100C000080E0E81680E0F80680E0080781E0180739
:100C100028F088E190E0A0E0B0E004C080E190E03E
:100C2000A0E0B0E020E230E040E050E0281B390BCB
:100C30004A0B5B0B04C016950795F794E7948A95C9
:100C4000D2F7F701E656FF4F8081281B3109410991
:100C50005109C9011F910F91FF90EF900895DF9204
:100C6000EF92FF920F931F93FC01E480F5800681C1
:100C70001781D1808081823048F480E090E0A0E14B
:100C8000B0E0E82AF92A0A2B1B2BA5C0843009F40E
:100C90009FC0823021F4EE24FF24870105C0E114B7
:100CA000F1040105110519F4E0E0F0E096C062815D
:100CB00073819FEF623879070CF05BC022E83FEF49
:100CC000261B370B2A3131052CF020E030E040E0C4
:100CD00050E02AC0B801A701022E04C0769567959E
:100CE000579547950A94D2F781E090E0A0E0B0E0F4
:100CF00004C0880F991FAA1FBB1F2A95D2F701971E
:100D0000A109B1098E219F21A023B1230097A1053C
:100D1000B10521F081E090E0A0E0B0E09A01AB01E4
:100D2000282B392B4A2B5B2BDA01C9018F77907066
:100D3000A070B07080349105A105B10539F427FF8A
:100D400009C0205C3F4F4F4F5F4F04C0215C3F4FB5
:100D50004F4F5F4FE0E0F0E02030A0E03A07A0E026
:100D60004A07A0E45A0710F0E1E0F0E079018A01B7
:100D700027C06038710564F5FB01E158FF4FD801C9
:100D8000C7018F779070A070B07080349105A10575
:100D9000B10539F4E7FE0DC080E490E0A0E0B0E0DA
:100DA00004C08FE390E0A0E0B0E0E80EF91E0A1F57
:100DB0001B1F17FF05C016950795F794E79431960A
:100DC00087E016950795F794E7948A95D1F705C0C3
:100DD000EE24FF248701EFEFF0E06E2F6795662782
:100DE0006795902F9F77D794DD24D7948E2F869583
:100DF000492F462B582F5D29B701CA011F910F912A
:100E0000FF90EF90DF900895FC01DB01408151815C
:100E10002281622F6F7770E0221F2227221F938189
:100E2000892F880F822B282F30E0991F9927991F2F
:100E300011969C93119721153105A9F5411551057E
:100E40006105710511F482E037C082E89FEF1396C7
:100E50009C938E9312979A01AB0167E0220F331F88
:100E6000441F551F6A95D1F783E08C930DC0220F64
:100E7000331F441F551F12968D919C911397019714
:100E800013969C938E931297203080E0380780E071
:100E9000480780E4580758F314962D933D934D93DB
:100EA0005C93179708952F3F310579F4411551054B
:100EB0006105710519F484E08C93089564FF03C003
:100EC00081E08C9312C01C9210C02F5730401396B3
:100ED0003C932E93129783E08C9387E0440F551F29
:100EE000661F771F8A95D1F7706414964D935D93B2
:100EF0006D937C93179708951F93DC01FB019C91E0
:100F0000923008F447C08081823008F443C09430A6
:100F100051F411961C91843099F58181682F70E00D
:100F2000611B71093FC0843021F0923031F482306E
:100F3000B9F18181882389F12DC011961C911197F7
:100F40008230F1F081811817D9F412962D913C91DD
:100F50001397828193818217930794F0281739079A
:100F6000BCF014968D919D910D90BC91A02D248183
:100F7000358146815781281739074A075B0718F4DE
:100F8000112341F00AC082179307A407B50740F464
:100F9000112319F061E070E005C06FEF7FEF02C030
:100FA00060E070E0CB011F910895DF93CF930F9223
:100FB000CDB7DEB71982EAE3F0E08FEF8083E7E395
:100FC000F0E08FEF8083E4E3F0E08FEF8083E1E3F4
:100FD000F0E08FEF8083EBE3F0E01082E8E3F0E0F5
:100FE0001082E5E3F0E01082E2E3F0E0108281E0BD
:100FF000898389810F90CF91DF910895DF93CF93FB
:1010000000D000D00F92CDB7DEB78A836B831982F0
:101010008A818430A8F58A81282F30E03D832C8393
:101020008C819D8181309105D1F02C813D812230D0
:1010300031052CF48C819D81009761F01EC02C81BC
:101040003D812230310581F08C819D818330910575
:1010500081F013C0EAE3F0E08B8180830EC0E7E308
:10106000F0E08B81808309C0E4E3F0E08B81808332
:1010700004C0E1E3F0E08B81808381E0898302C0DA
:1010800083E0898389810F900F900F900F900F90CC
:10109000CF91DF910895DF93CF9300D000D00F92CE
:1010A000CDB7DEB78A836B8319828A818430A8F535
:1010B0008A81282F30E03D832C838C819D81813073
:1010C0009105D1F02C813D81223031052CF48C81A9
:1010D0009D81009761F01EC02C813D812230310539
:1010E00081F08C819D818330910581F013C0EBE309
:1010F000F0E08B8180830EC0E8E3F0E08B81808399
:1011000009C0E5E3F0E08B81808304C0E2E3F0E016
:101110008B81808381E0898302C083E08983898118
:101120000F900F900F900F900F90CF91DF91089537
:10113000DF93CF9300D000D0CDB7DEB78A8319827A
:101140008A81843008F041C08A81282F30E03C83B6
:101150002B838B819C8181309105E9F02B813C812F
:10116000223031052CF48B819C81009761F02AC0DC
:101170002B813C8122303105B1F08B819C81833001
:101180009105C9F01FC0AAE3B0E0EAE3F0E0808176
:1011900080958C9317C0A7E3B0E0E7E3F0E080818F
:1011A00080958C930FC0A4E3B0E0E4E3F0E080818D
:1011B00080958C9307C0A1E3B0E0E1E3F0E080818B
:1011C00080958C9381E0898302C083E08983898143
:1011D0000F900F900F900F90CF91DF910895DF93B4
:1011E000CF9300D000D0CDB7DEB78A8319828A8131
:1011F000843008F041C08A81282F30E03C832B8363
:101200008B819C8181309105E9F02B813C812230DA
:1012100031052CF48B819C81009761F02AC02B81D1
:101220003C8122303105B1F08B819C818330910566
:10123000C9F01FC0ABE3B0E0EBE3F0E08081809544
:101240008C9317C0A8E3B0E0E8E3F0E080818095DC
:101250008C930FC0A5E3B0E0E5E3F0E080818095DA
:101260008C9307C0A2E3B0E0E2E3F0E080818095D8
:101270008C9381E0898302C083E0898389810F9008
:101280000F900F900F90CF91DF910895DF93CF9340
:1012900000D000D000D0CDB7DEB78A837C836B83CB
:1012A00019828A81843008F044C08B819C81009728
:1012B000E9F18A81282F30E03E832D838D819E8144
:1012C00081309105E1F02D813E81223031052CF4F1
:1012D0008D819E81009761F026C02D813E81223054
:1012E0003105A1F08D819E8183309105B1F01BC045
:1012F000EAE3F0E08081EB81FC81808314C0E7E3C6
:10130000F0E08081EB81FC8180830DC0E4E3F0E0BC
:101310008081EB81FC81808306C0E1E3F0E0808185
:10132000EB81FC81808381E0898305C082E0898331
:1013300002C083E08983898126960FB6F894DEBFC8
:101340000FBECDBFCF91DF910895DF93CF9300D033
:1013500000D000D0CDB7DEB78A837C836B8319823F
:101360008A81843008F044C08B819C810097E9F128
:101370008A81282F30E03E832D838D819E818130AC
:101380009105E1F02D813E81223031052CF48D81D3
:101390009E81009761F026C02D813E81223031056B
:1013A000A1F08D819E8183309105B1F01BC0E9E3EE
:1013B000F0E08081EB81FC81808314C0E6E3F0E003
:1013C0008081EB81FC8180830DC0E3E3F0E08081CC
:1013D000EB81FC81808306C0E0E3F0E08081EB815B
:1013E000FC81808381E0898305C082E0898302C01B
:1013F00083E08983898126960FB6F894DEBF0FBEFD
:10140000CDBFCF91DF910895DF93CF9300D000D06F
:1014100000D0CDB7DEB78A836B834C8319828A8173
:10142000843008F0D1C08B81883008F0CDC08C8129
:10143000823008F0C9C08A81282F30E03E832D8396
:101440006D817E816130710509F441C08D819E817D
:101450008230910534F42D813E812115310571F0E2
:10146000B0C06D817E816230710509F459C08D81F3
:101470009E818330910509F47CC0A3C0AAE3B0E04B
:10148000EAE3F0E08081482F8B81282F30E081E073
:1014900090E002C0880F991F2A95E2F78095842377
:1014A0008C93AAE3B0E0EAE3F0E08081482F8C81DE
:1014B000282F30E08B81882F90E0B90102C0660FA1
:1014C000771F8A95E2F7CB01842B8C937AC0A7E330
:1014D000B0E0E7E3F0E08081482F8B81282F30E0F7
:1014E00081E090E002C0880F991F2A95E2F780956D
:1014F00084238C93A7E3B0E0E7E3F0E08081482FFA
:101500008C81282F30E08B81882F90E0B90102C0B8
:10151000660F771F8A95E2F7CB01842B8C9351C01D
:10152000A4E3B0E0E4E3F0E08081482F8B81282F32
:1015300030E081E090E002C0880F991F2A95E2F721
:10154000809584238C93A4E3B0E0E4E3F0E0808111
:10155000482F8C81282F30E08B81882F90E0B901B3
:1015600002C0660F771F8A95E2F7CB01842B8C931C
:1015700028C0A1E3B0E0E1E3F0E08081482F8B8157
:10158000282F30E081E090E002C0880F991F2A9553
:10159000E2F7809584238C93A1E3B0E0E1E3F0E0EF
:1015A0008081482F8C81282F30E08B81882F90E01C
:1015B000B90102C0660F771F8A95E2F7CB01842B31
:1015C0008C9381E0898302C083E089838981269698
:1015D0000FB6F894DEBF0FBECDBFCF91DF91089557
:1015E000DF93CF9300D000D000D0CDB7DEB78A8391
:1015F0006B834C8319828A81843008F0D1C08B813F
:10160000883008F0CDC08C81823008F0C9C08A8152
:10161000282F30E03E832D836D817E8161307105FE
:1016200009F441C08D819E818230910534F42D8171
:101630003E812115310571F0B0C06D817E8162302F
:10164000710509F459C08D819E818330910509F49B
:101650007CC0A3C0ABE3B0E0EBE3F0E08081482FB7
:101660008B81282F30E081E090E002C0880F991F25
:101670002A95E2F7809584238C93ABE3B0E0EBE30B
:10168000F0E08081482F8C81282F30E08B81882FDB
:1016900090E0B90102C0660F771F8A95E2F7CB018F
:1016A000842B8C937AC0A8E3B0E0E8E3F0E080817B
:1016B000482F8B81282F30E081E090E002C0880F16
:1016C000991F2A95E2F7809584238C93A8E3B0E0D4
:1016D000E8E3F0E08081482F8C81282F30E08B8177
:1016E000882F90E0B90102C0660F771F8A95E2F754
:1016F000CB01842B8C9351C0A5E3B0E0E5E3F0E08F
:101700008081482F8B81282F30E081E090E002C05B
:10171000880F991F2A95E2F7809584238C93A5E37F
:10172000B0E0E5E3F0E08081482F8C81282F30E0A5
:101730008B81882F90E0B90102C0660F771F8A95D0
:10174000E2F7CB01842B8C9328C0A2E3B0E0E2E364
:10175000F0E08081482F8B81282F30E081E090E0FD
:1017600002C0880F991F2A95E2F7809584238C93F5
:10177000A2E3B0E0E2E3F0E08081482F8C81282FE3
:1017800030E08B81882F90E0B90102C0660F771F8F
:101790008A95E2F7CB01842B8C9381E0898302C088
:1017A00083E08983898126960FB6F894DEBF0FBE49
:1017B000CDBFCF91DF910895DF93CF9300D000D0BC
:1017C0000F92CDB7DEB78A836B8319828A8184300A
:1017D00008F075C08B81883008F071C08A81282F8D
:1017E00030E03D832C838C819D818130910549F1CE
:1017F0002C813D81223031052CF48C819D81009714
:1018000061F05AC02C813D812230310571F18C810B
:101810009D8183309105E9F14FC0AAE3B0E0EAE38E
:10182000F0E08081482F8B81282F30E081E090E02C
:10183000022E02C0880F991F0A94E2F784278C9326
:101840003BC0A7E3B0E0E7E3F0E08081482F8B8165
:10185000282F30E081E090E0022E02C0880F991F0F
:101860000A94E2F784278C9327C0A4E3B0E0E4E372
:10187000F0E08081482F8B81282F30E081E090E0DC
:10188000022E02C0880F991F0A94E2F784278C93D6
:1018900013C0A1E3B0E0E1E3F0E08081482F8B8149
:1018A000282F30E081E090E0022E02C0880F991FBF
:1018B0000A94E2F784278C9381E0898302C083E055
:1018C000898389810F900F900F900F900F90CF9187
:1018D000DF910895DF93CF9300D000D00F92CDB762
:1018E000DEB78A836B8319828A81843008F075C0E1
:1018F0008B81883008F071C08A81282F30E03D83C9
:101900002C838C819D818130910549F12C813D8111
:10191000223031052CF48C819D81009761F05AC0F2
:101920002C813D812230310571F18C819D81833084
:101930009105E9F14FC0ABE3B0E0EBE3F0E080816B
:10194000482F8B81282F30E081E090E0022E02C0EA
:10195000880F991F0A94E2F784278C933BC0A8E371
:10196000B0E0E8E3F0E08081482F8B81282F30E061
:1019700081E090E0022E02C0880F991F0A94E2F7DE
:1019800084278C9327C0A5E3B0E0E5E3F0E08081F5
:10199000482F8B81282F30E081E090E0022E02C09A
:1019A000880F991F0A94E2F784278C9313C0A2E34F
:1019B000B0E0E2E3F0E08081482F8B81282F30E017
:1019C00081E090E0022E02C0880F991F0A94E2F78E
:1019D00084278C9381E0898302C083E08983898195
:1019E0000F900F900F900F900F90CF91DF9108956F
:1019F000DF93CF93CDB7DEB727970FB6F894DEBF4E
:101A00000FBECDBF8A836B835D834C8319828A812D
:101A1000843008F07FC08B81883008F07BC08C81D7
:101A20009D81009709F473C08A81282F30E03F839D
:101A30002E834E815F814130510559F18E819F8106
:101A40008230910534F42E813F812115310569F0F2
:101A50005BC04E815F814230510579F18E819F815B
:101A60008330910509F43DC04FC0EAE3F0E0808186
:101A7000282F30E08B81882F90E0A90102C0559576
:101A800047958A95E2F7CA018170EC81FD818083D8
:101A90003BC0E7E3F0E08081282F30E08B81882F86
:101AA00090E0A90102C0559547958A95E2F7CA01D1
:101AB0008170EC81FD81808327C0E4E3F0E08081C8
:101AC000282F30E08B81882F90E0A90102C0559526
:101AD00047958A95E2F7CA018170EC81FD81808388
:101AE00013C0E1E3F0E08081282F30E08B81882F64
:101AF00090E0A90102C0559547958A95E2F7CA0181
:101B00008170EC81FD81808381E0898305C082E062
:101B1000898302C083E08983898127960FB6F89470
:101B2000DEBF0FBECDBFCF91DF910895DF93CF937E
:101B3000CDB7DEB727970FB6F894DEBF0FBECDBF87
:101B40008A836B835D834C8319828A81843008F099
:101B50007FC08B81883008F07BC08C819D8100978D
:101B600009F473C08A81282F30E03F832E834E8191
:101B70005F814130510559F18E819F8182309105FD
:101B800034F42E813F812115310569F05BC04E810F
:101B90005F814230510579F18E819F8183309105BB
:101BA00009F43DC04FC0E9E3F0E08081282F30E028
:101BB0008B81882F90E0A90102C0559547958A95A1
:101BC000E2F7CA018170EC81FD8180833BC0E6E3CE
:101BD000F0E08081282F30E08B81882F90E0A901F0
:101BE00002C0559547958A95E2F7CA018170EC814C
:101BF000FD81808327C0E3E3F0E08081282F30E07F
:101C00008B81882F90E0A90102C0559547958A9550
:101C1000E2F7CA018170EC81FD81808313C0E0E3AB
:101C2000F0E08081282F30E08B81882F90E0A9019F
:101C300002C0559547958A95E2F7CA018170EC81FB
:101C4000FD81808381E0898305C082E0898302C0B1
:101C500083E08983898127960FB6F894DEBF0FBE93
:101C6000CDBFCF91DF910895DF93CF9300D0CDB753
:101C7000DEB79A8389838AE290E00E94C022E981DC
:101C8000FA8191838083E981FA810190F081E02DCE
:101C9000118210820F900F90CF91DF910895DF9302
:101CA000CF93CDB7DEB72A970FB6F894DEBF0FBE3D
:101CB000CDBF9C838B834D835E836F8378873A8708
:101CC0002987E985FA858081918101979A838983A3
:101CD00028C089819A81DC01119689819A812985A0
:101CE0003A85880F991F0196880F991FF901E80F0F
:101CF000F91F208131814281538169857A85CD0127
:101D0000880F991F0196880F991FFB01E80FF91F93
:101D1000208331834283538389819A8101979A83F7
:101D2000898329813A818B819C81281739078CF618
:101D30008B819C8129853A85880F991F0196880F90
:101D4000991FF901E80FF91F8D819E81AF81B88538
:101D500080839183A283B383E985FA858081918111
:101D60000196E985FA85918380832A960FB6F894C7
:101D7000DEBF0FBECDBFCF91DF910895DF93CF932C
:101D800000D000D0CDB7DEB79A838983E981FA818C
:101D9000808191818A30910529F481E090E09C83D3
:101DA0008B8302C01C821B828B819C810F900F90C1
:101DB0000F900F90CF91DF910895DF93CF93CDB720
:101DC000DEB728970FB6F894DEBF0FBECDBF9C8359
:101DD0008B837E836D8358874F838B819C812F817A
:101DE0003885880F991F0196880F991FF901E80F10
:101DF000F91F80819181A281B381ED81FE81808371
:101E00009183A283B3838B819C8101969A8389837A
:101E100028C089819A81DC01119789819A812F815B
:101E20003885880F991F0196880F991FF901E80FCF
:101E3000F91F20813181428153816F817885CD01E5
:101E4000880F991F0196880F991FFB01E80FF91F52
:101E5000208331834283538389819A8101969A83B7
:101E60008983EF81F885808191819C0121503040E8
:101E700089819A812817390764F6EF81F885808176
:101E800091810197EF81F8859183808328960FB621
:101E9000F894DEBF0FBECDBFCF91DF910895DF93E1
:101EA000CF9300D000D0CDB7DEB79A838983E98184
:101EB000FA8180819181009729F481E090E09C83F0
:101EC0008B8302C01C821B828B819C810F900F90A0
:101ED0000F900F90CF91DF910895DF93CF9300D0B3
:101EE000CDB7DEB79A838983E981FA8180819181B8
:101EF0000F900F90CF91DF910895DF93CF9300D093
:101F000000D000D0CDB7DEB79A8389837C836B8302
:101F10005E834D8389819A812D813E81880F991F2F
:101F20000196880F991FF901E80FF91F80819181AF
:101F3000A281B381EB81FC8180839183A283B383EF
:101F400026960FB6F894DEBF0FBECDBFCF91DF91BE
:101F50000895DF93CF93CDB7DEB728970FB6F894E7
:101F6000DEBF0FBECDBF9A8389834B835C836D83B5
:101F70007E8338872F8389819A812F813885880FC6
:101F8000991F0196880F991FF901E80FF91F8B819E
:101F90009C81AD81BE8180839183A283B383289687
:101FA0000FB6F894DEBF0FBECDBFCF91DF9108957D
:101FB000DF93CF9300D0CDB7DEB79A838983E981D1
:101FC000FA810190F081E02D118210820F900F9024
:101FD000CF91DF910895DF93CF9300D000D000D050
:101FE000CDB7DEB79C838B837E836D831A82198283
:101FF0001AC089819A812B813C81880F991F019693
:10200000880F991FF901E80FF91F80819181A28142
:10201000B381ED81FE81BC01CD01099589819A8151
:1020200001969A838983EB81FC81208131818981AA
:102030009A8182179307ECF226960FB6F894DEBFCA
:102040000FBECDBFCF91DF9108950F931F93DF9304
:10205000CF93CDB7DEB7C854D0400FB6F894DEBFEB
:102060000FBECDBFFE01E95BFF4F1082FE01ED5BAD
:10207000FF4F80E090E0ACE0B2E480839183A283E4
:10208000B3838E01015C1F4FFE01ED5BFF4F60814A
:1020900071818281938120E030E04AE753E40E941D
:1020A0001F02DC01CB01F80180839183A283B383FB
:1020B000FE01FF96608171818281938120E030E092
:1020C00040E85FE30E94550488232CF481E090E00F
:1020D0009EAF8DAF46C0FE01FF9660817181828107
:1020E000938120E03FEF4FE757E40E94F503181675
:1020F00064F5FE01ED5BFF4F608171818281938108
:1021000020E030E040E251E40E941F02DC01CB01FC
:10211000BC01CD010E944900DC01CB019EAF8DAF17
:102120000FC089E190E09CAF8BAF8BAD9CAD019768
:10213000F1F79CAF8BAF8DAD9EAD01979EAF8DAF8C
:102140008DAD9EAD009769F716C0FE01FF966081C8
:102150007181828193810E944900DC01CB019EAF95
:102160008DAF8DAD9EAD9AAF89AF89AD9AAD019718
:10217000F1F79AAF89AF81E066E041E00E94040A7E
:10218000FE01E95BFF4F8083FE01E95BFF4F808129
:10219000813041F0FE01E95BFF4F808129968FAFCE
:1021A000299723C381E065E041E00E94040AFE0113
:1021B000E95BFF4F8083FE01E95BFF4F8081813047
:1021C00041F0FE01E95BFF4F808129968FAF29978F
:1021D0000CC381E064E041E00E94040AFE01E95B77
:1021E000FF4F8083FE01E95BFF4F8081813041F02A
:1021F000FE01E95BFF4F808129968FAF2997F5C2D9
:1022000080E060E041E00E94040AFE01E95BFF4FCC
:102210008083FE01E95BFF4F8081813041F0FE0148
:10222000E95BFF4F808129968FAF2997DEC280E05E
:1022300061E041E00E94040AFE01E95BFF4F8083F8
:10224000FE01E95BFF4F8081813041F0FE01E95BD7
:10225000FF4F808129968FAF2997C7C280E062E047
:1022600041E00E94040AFE01E95BFF4F8083FE010A
:10227000E95BFF4F8081813041F0FE01E95BFF4F58
:10228000808129968FAF2997B0C280E063E041E05A
:102290000E94040AFE01E95BFF4F8083FE01E95BB7
:1022A000FF4F8081813041F0FE01E95BFF4F80816B
:1022B00029968FAF299799C280E064E041E00E949F
:1022C000040AFE01E95BFF4F8083FE01E95BFF4FDB
:1022D0008081813041F0FE01E95BFF4F80812996CA
:1022E0008FAF299782C280E065E041E00E94040A36
:1022F000FE01E95BFF4F8083FE01E95BFF4F8081B8
:10230000813041F0FE01E95BFF4F808129968FAF5C
:1023100029976BC280E066E041E00E94040AFE015A
:10232000E95BFF4F8083FE01E95BFF4F80818130D5
:1023300041F0FE01E95BFF4F808129968FAF29971D
:1023400054C280E067E041E00E94040AFE01E95BBC
:10235000FF4F8083FE01E95BFF4F8081813041F0B8
:10236000FE01E95BFF4F808129968FAF29973DC21F
:1023700088E30E940414FE01E95BFF4F8083FE01A5
:10238000E95BFF4F8081813041F0FE01E95BFF4F47
:10239000808129968FAF299728C280E090E0A0E83D
:1023A000BFE38DAB9EABAFABB8AF6DA97EA98FA9D4
:1023B00098AD20E030E04AE753E40E941F02DC01C0
:1023C000CB0189AB9AABABABBCAB69A97AA98BA9A2
:1023D0009CA920E030E040E85FE30E945504882398
:1023E0002CF481E090E098AB8FA73FC069A97AA94F
:1023F0008BA99CA920E03FEF4FE757E40E94F5032B
:1024000018164CF56DA97EA98FA998AD20E030E093
:1024100040E251E40E941F02DC01CB01BC01CD016E
:102420000E944900DC01CB0198AB8FA70FC089E166
:1024300090E09EA78DA78DA59EA50197F1F79EA779
:102440008DA78FA598A9019798AB8FA78FA598A95D
:10245000009769F714C069A97AA98BA99CA90E9461
:102460004900DC01CB0198AB8FA78FA598A99CA749
:102470008BA78BA59CA50197F1F79CA78BA78CE058
:102480000E940414FE01E95BFF4F8083FE01E95BBB
:10249000FF4F8081813041F0FE01E95BFF4F808179
:1024A00029968FAF2997A1C180E090E0A0E8BFE313
:1024B0008FA398A7A9A7BAA76FA178A589A59AA560
:1024C00020E030E04AE753E40E941F02DC01CB0128
:1024D0008BA39CA3ADA3BEA36BA17CA18DA19EA148
:1024E00020E030E040E85FE30E94550488232CF4AC
:1024F00081E090E09AA389A33FC06BA17CA18DA14C
:102500009EA120E03FEF4FE757E40E94F503181625
:102510004CF56FA178A589A59AA520E030E040E2AE
:1025200051E40E941F02DC01CB01BC01CD010E94DD
:102530004900DC01CB019AA389A30FC089E190E097
:1025400098A38F8F8F8D98A10197F1F798A38F8F04
:1025500089A19AA101979AA389A389A19AA1009719
:1025600069F714C06BA17CA18DA19EA10E944900B6
:10257000DC01CB019AA389A389A19AA19E8F8D8F9B
:102580008D8D9E8D0197F1F79E8F8D8F81E00E943A
:102590000414FE01E95BFF4F8083FE01E95BFF4FFE
:1025A0008081813041F0FE01E95BFF4F80812996F7
:1025B0008FAF29971AC180E090E0A0E4B0E4898F42
:1025C0009A8FAB8FBC8F698D7A8D8B8D9C8D20E01F
:1025D00030E04AE753E40E941F02DC01CB018D8BFF
:1025E0009E8BAF8BB88F6D897E898F89988D20E007
:1025F00030E040E85FE30E94550488232CF481E03A
:1026000090E09C8B8B8B3FC06D897E898F89988DE4
:1026100020E03FEF4FE757E40E94F50318164CF512
:10262000698D7A8D8B8D9C8D20E030E040E251E405
:102630000E941F02DC01CB01BC01CD010E944900B8
:10264000DC01CB019C8B8B8B0FC089E190E09A8BD6
:10265000898B89899A890197F1F79A8B898B8B8964
:102660009C8901979C8B8B8B8B899C89009769F740
:1026700014C06D897E898F89988D0E944900DC0184
:10268000CB019C8B8B8B8B899C89988B8F878F85BB
:1026900098890197F1F7988B8F8786E00E94041440
:1026A000FE01E95BFF4F8083FE01E95BFF4F808104
:1026B000813041F0FE01E95BFF4F808129968FAFA9
:1026C000299793C080E090E0A0E8BFE38B879C87C8
:1026D000AD87BE876B857C858D859E8520E030E04B
:1026E0004AE753E40E941F02DC01CB018F839887E5
:1026F000A987BA876F81788589859A8520E030E03F
:1027000040E85FE30E94550488232CF481E090E0C8
:102710009E838D833FC06F81788589859A8520E06F
:102720003FEF4FE757E40E94F50318164CF56B8511
:102730007C858D859E8520E030E040E251E40E945A
:102740001F02DC01CB01BC01CD010E944900DC016C
:10275000CB019E838D830FC089E190E09C838B83A6
:102760008B819C810197F1F79C838B838D819E8166
:1027700001979E838D838D819E81009769F714C098
:102780006F81788589859A850E944900DC01CB019B
:102790009E838D838D819E819A83898389819A818D
:1027A0000197F1F79A83898380E80E940414FE015F
:1027B000E95BFF4F8083FE01E95BFF4F8081813041
:1027C00041F0FE01E95BFF4F808129968FAF299789
:1027D0000CC0FE01E95BFF4F81E08083FE01E95BF5
:1027E000FF4F808129968FAF299729968FAD299722
:1027F000C85BDF4F0FB6F894DEBF0FBECDBFCF91E1
:10280000DF911F910F910895DF93CF9300D00F9226
:10281000CDB7DEB78A83198281E066E040E00E948E
:10282000F00A89838981813019F089818B83AEC058
:1028300081E064E040E00E94F00A89838981813070
:1028400019F089818B83A2C081E065E040E00E949D
:10285000F00A89838981813019F089818B8396C040
:102860008A81982F991F9927991F80E060E0492F4E
:102870000E94F00A89838981813019F089818B83D4
:1028800085C08A818295869586958370982F9170F0
:1028900080E061E0492F0E94F00A898389818130BC
:1028A00019F089818B8372C08A81829586958770A1
:1028B000982F917080E062E0492F0E94F00A89838E
:1028C0008981813019F089818B8360C08A818295EA
:1028D0008F70982F917080E063E0492F0E94F00A7A
:1028E00089838981813019F089818B834FC08A81E6
:1028F000869586958695982F917080E064E0492FA3
:102900000E94F00A89838981813019F089818B8343
:102910003DC08A8186958695982F917080E065E00C
:10292000492F0E94F00A89838981813019F08981B9
:102930008B832CC08A818695982F917080E066E009
:10294000492F0E94F00A89838981813019F0898199
:102950008B831CC08A81982F917080E067E0492F9B
:102960000E94F00A89838981813019F089818B83E3
:102970000DC00E94CD1489838981813019F089812D
:102980008B8304C081E0898389818B838B810F9045
:102990000F900F90CF91DF910895DF93CF93CDB734
:1029A000DEB76E970FB6F894DEBF0FBECDBF1D8E9B
:1029B00081E064E041E00E94F00A8D8F8D8D8130CE
:1029C00019F08D8D8E8FF4C080E090E0A0E0B0E42F
:1029D000898F9A8FAB8FBC8F698D7A8D8B8D9C8DF3
:1029E00020E030E04AE753E40E941F02DC01CB0103
:1029F0008D8B9E8BAF8BB88F6D897E898F89988DDB
:102A000020E030E040E85FE30E94550488232CF486
:102A100081E090E09C8B8B8B3FC06D897E898F8994
:102A2000988D20E03FEF4FE757E40E94F50318161A
:102A30004CF5698D7A8D8B8D9C8D20E030E040E2E5
:102A400051E40E941F02DC01CB01BC01CD010E94B8
:102A50004900DC01CB019C8B8B8B0FC089E190E09E
:102A60009A8B898B89899A890197F1F79A8B898B3F
:102A70008B899C8901979C8B8B8B8B899C89009778
:102A800069F714C06D897E898F89988D0E944900ED
:102A9000DC01CB019C8B8B8B8B899C89988B8F87DE
:102AA0008F8598890197F1F7988B8F8781E064E093
:102AB00040E00E94F00A8D8F8D8D813019F08D8D50
:102AC0008E8F76C080E090E0A0EAB0E48B879C8790
:102AD000AD87BE876B857C858D859E8520E030E047
:102AE0004AE753E40E941F02DC01CB018F839887E1
:102AF000A987BA876F81788589859A8520E030E03B
:102B000040E85FE30E94550488232CF481E090E0C4
:102B10009E838D833FC06F81788589859A8520E06B
:102B20003FEF4FE757E40E94F50318164CF56B850D
:102B30007C858D859E8520E030E040E251E40E9456
:102B40001F02DC01CB01BC01CD010E944900DC0168
:102B5000CB019E838D830FC089E190E09C838B83A2
:102B60008B819C810197F1F79C838B838D819E8162
:102B700001979E838D838D819E81009769F714C094
:102B80006F81788589859A850E944900DC01CB0197
:102B90009E838D838D819E819A83898389819A8189
:102BA0000197F1F79A83898381E08D8F8D8D8E8FC8
:102BB0008E8D6E960FB6F894DEBF0FBECDBFCF914F
:102BC000DF910895DF93CF9300D0CDB7DEB78A832E
:102BD00019828A810E94F315898389810F900F9051
:102BE000CF91DF910895DF93CF9300D00F92CDB7AF
:102BF000DEB78A83198281E066E041E00E94F00A34
:102C000089838981813019F089818B83ACC081E00F
:102C100064E040E00E94F00A89838981813019F0E4
:102C200089818B83A0C081E065E040E00E94F00ACA
:102C300089838981813019F089818B8394C08A814D
:102C4000982F991F9927991F80E060E0492F0E94D3
:102C5000F00A89838981813019F089818B8383C04F
:102C60008A818295869586958370982F917080E0F1
:102C700061E0492F0E94F00A89838981813019F02F
:102C800089818B8370C08A81829586958770982F01
:102C9000917080E062E0492F0E94F00A8983898167
:102CA000813019F089818B835EC08A8182958F7013
:102CB000982F917080E063E0492F0E94F00A898389
:102CC0008981813019F089818B834DC08A818695F5
:102CD00086958695982F917080E064E0492F0E9438
:102CE000F00A89838981813019F089818B833BC007
:102CF0008A8186958695982F917080E065E0492FAE
:102D00000E94F00A89838981813019F089818B833F
:102D10002AC08A818695982F917080E066E0492FBD
:102D20000E94F00A89838981813019F089818B831F
:102D30001AC08A81982F917080E067E0492F0E9425
:102D4000F00A89838981813019F089818B830BC0D6
:102D50000E94CD1489838981813019F089818B8308
:102D600002C089818B838B810F900F900F90CF9140
:102D7000DF910895DF93CF9300D0CDB7DEB78A837C
:102D800019828A810E940414898389810F900F908F
:102D9000CF91DF910895DF93CF9300D00F92CDB7FD
:102DA000DEB79B838A8319828A819B810E94E01609
:102DB000898389810F900F900F90CF91DF910895B3
:102DC000DF93CF9300D000D0CDB7DEB79B838A834B
:102DD00019828A819B810097D1F0EA81FB818081F1
:102DE000882391F0EA81FB8180810E94F315898319
:102DF0008981813019F089818C830DC08A819B8102
:102E000001969B838A83E9CF81E0898302C082E0B7
:102E1000898389818C838C810F900F900F900F9004
:102E2000CF91DF910895DF93CF9300D000D00F9220
:102E3000CDB7DEB78B836C831A828B81833070F5BC
:102E40008B81882359F18C81813140F58C818823D5
:102E500029F119828B81813079F480E88983998105
:102E60008C81890F81500E9404148A838A81813069
:102E7000B9F08A818D8316C08B81823089F480EC11
:102E8000898399818C81890F81500E9404148A83DF
:102E90008A81813029F08A818D8304C083E08A830E
:102EA0008A818D838D810F900F900F900F900F90DE
:102EB000CF91DF910895DF93CF9300D000D00F9290
:102EC000CDB7DEB76A837B838C839D8319828A8129
:102ED0009B81AC81BD81BC01CD010E9479178983A2
:102EE00089810F900F900F900F900F90CF91DF91ED
:102EF00008950F931F93DF93CF93CDB7DEB76197FC
:102F00000FB6F894DEBF0FBECDBF6D877E878F876B
:102F1000988B1A828D859E85AF85B889BB23CCF4AA
:102F20008DE20E94F3158A838A81813019F08A81AB
:102F3000898B77C08D859E85AF85B889B095A09522
:102F4000909581959F4FAF4FBF4F8D879E87AF87DD
:102F5000B88B19828D859E85AF85B8890097A105AC
:102F6000B105C9F580E30E94F3158A838A81813017
:102F700009F453C08A81898B54C08981082F10E0DD
:102F80008D859E85AF85B8892AE030E040E050E02D
:102F9000BC01CD010E944C22DC01CB01282F205D19
:102FA000CE010396FC01E00FF11F208389818F5F22
:102FB00089838D859E85AF85B8892AE030E040E021
:102FC00050E0BC01CD010E944C22DA01C9018D877D
:102FD0009E87AF87B88B8D859E85AF85B88918167B
:102FE00019061A061B064CF215C089818150898387
:102FF0008981282F30E0CE010396FC01E20FF31FF8
:1030000080810E94F3158A838A81813019F08A8138
:10301000898B07C08981882341F781E08A838A816F
:10302000898B898961960FB6F894DEBF0FBECDBF3C
:10303000CF91DF911F910F910895DF93CF93CDB77B
:10304000DEB72E970FB6F894DEBF0FBECDBF6A87EE
:103050007B878C879D8719866A857B858C859D8576
:1030600020E030E040E050E00E94550488239CF4CA
:103070008DE20E94F31589878985813019F0898551
:103080008E87ABC08A859B85AC85BD85B0588A8705
:103090009B87AC87BD876A857B858C859D850E94D3
:1030A0004900DC01CB0198878F838F819885CC0103
:1030B000A0E0B0E0BC01CD010E9479178987898525
:1030C000813019F089858E8788C08F819885CC01E1
:1030D000A0E0B0E0BC01CD010E9467059B01AC01FE
:1030E0006A857B858C859D850E94C101DC01CB01B1
:1030F0008B839C83AD83BE836B817C818D819E811C
:1031000020E030E040E050E00E94C503882319F43D
:1031100089858E8762C08EE20E94F3158987898532
:10312000813019F089858E8758C06B817C818D81B3
:103130009E8127E137EB41E558E30E94F201DC0173
:10314000CB018B839C83AD83BE831A8240C06B818D
:103150007C818D819E8120E030E040E251E40E943C
:103160001F02DC01CB018B839C83AD83BE836B810B
:103170007C818D819E810E944900DC01CB01898385
:103180008981805D0E94F31589878985813019F0D6
:1031900089858E8722C08981882F90E0AA2797FD94
:1031A000A095BA2FBC01CD010E94B5049B01AC01D2
:1031B0006B817C818D819E810E94C101DC01CB01EC
:1031C0008B839C83AD83BE838A818F5F8A838A8150
:1031D000843008F4BCCF89858E878E852E960FB6F5
:1031E000F894DEBF0FBECDBFCF91DF910895DF937E
:1031F000CF9300D000D000D0CDB7DEB78B837D83D6
:103200006C831A828C819D81009709F43EC08B816A
:103210008830C0F519828B81882F90E00896880F3E
:10322000991F880F991F880F991F0E9404148A8381
:103230008A81813019F08A818E832BC0198215C052
:103240008981282F30E08C819D81FC01E20FF31FE2
:1032500080810E94F3158A838A81813019F08A81E6
:103260008E8317C089818F5F89838981883040F37D
:1032700080E80E9404148A838A81813041F08A8127
:103280008E8307C083E08A8302C082E08A838A81BA
:103290008E838E8126960FB6F894DEBF0FBECDBF0B
:1032A000CF91DF910895DF93CF930F92CDB7DEB723
:1032B000198281E00E940414898389810F90CF9143
:1032C000DF910895DF93CF930F92CDB7DEB71982C8
:1032D0008DE00E940414898389810F90CF91DF9142
:1032E0000895DF93CF9300D0CDB7DEB7198283E086
:1032F00060E041E00E94040A89838981813019F0ED
:1033000089818A83B6C083E061E041E00E94040ABB
:1033100089838981813019F089818A83AAC083E0F9
:1033200062E041E00E94040A89838981813019F0BA
:1033300089818A839EC083E063E041E00E94040AA1
:1033400089838981813019F089818A8392C083E0E1
:1033500060E041E00E94F00A89838981813019F0A0
:1033600089818A8386C083E061E041E00E94F00A9F
:1033700089838981813019F089818A837AC083E0C9
:1033800062E041E00E94F00A89838981813019F06E
:1033900089818A836EC083E063E041E00E94F00A85
:1033A00089838981813019F089818A8362C082E0B2
:1033B00060E040E00E94040A89838981813019F02D
:1033C00089818A8356C082E061E040E00E94040A5D
:1033D00089838981813019F089818A834AC082E09A
:1033E00062E040E00E94040A89838981813019F0FB
:1033F00089818A833EC082E063E040E00E94040A43
:1034000089838981813019F089818A8332C082E081
:1034100060E041E00E94F00A89838981813019F0DF
:1034200089818A8326C082E061E041E00E94F00A3F
:1034300089838981813019F089818A831AC082E069
:1034400062E041E00E94F00A89838981813019F0AD
:1034500089818A830EC082E063E041E00E94F00A25
:1034600089838981813019F089818A8302C08981A9
:103470008A838A810F900F90CF91DF910895DF9317
:10348000CF93CDB7DEB727970FB6F894DEBF0FBE48
:10349000CDBF9E838D831B82ED81FE818FEF808364
:1034A0001A8219821A8298C08A81882F90E0FC01C2
:1034B000E454FE4F20818A81882F90E0FC01E8547B
:1034C000FE4F9081822F692F40E00E94F00A8B838B
:1034D0008B81813019F08B818F8384C019825BC00E
:1034E0008981882F90E0FC01EC54FE4F4081898156
:1034F000882F90E0FC01E055FE4F90819E012C5FEB
:103500003F4F842F692FA9010E94960D8B838B81D9
:10351000813019F08B818F8365C08C818823C1F540
:103520008981482F50E08A81282F30E0CA01880F16
:10353000991F880F991F820F931FFC01E056FE4FC1
:103540008081ED81FE8180831DC08981882F90E07C
:10355000FC01EC54FE4F40818981882F90E0FC01F2
:10356000E055FE4F90819E012C5F3F4F842F692FC5
:10357000A9010E94960D8B838B81813019F08B817C
:103580008F8330C08C81882301F38B818F832AC085
:1035900089818F5F89838981843008F4A1CF8A81F2
:1035A000882F90E0FC01E454FE4F20818A81882F0F
:1035B00090E0FC01E854FE4F9081822F692F41E09A
:1035C0000E94F00A8B838B81813019F08B818F836D
:1035D00009C08A818F5F8A838A81843008F464CF2E
:1035E0008B818F838F8127960FB6F894DEBF0FBE35
:1035F000CDBFCF91DF910895DF93CF93CDB7DEB7E5
:103600002F970FB6F894DEBF0FBECDBF0E94711981
:10361000CE010F960E943F1A8F858336C9F70E940C
:10362000251081E065E00E94131780E690E00E947B
:10363000CB1680E090E0AAE7B4E48B879C87AD8747
:10364000BE876B857C858D859E8520E030E04AE7CE
:1036500053E40E941F02DC01CB018F839887A98766
:10366000BA876F81788589859A8520E030E040E8C7
:103670005FE30E94550488232CF481E090E09E8350
:103680008D833FC06F81788589859A8520E03FEFE3
:103690004FE757E40E94F50318164CF56B857C85BF
:1036A0008D859E8520E030E040E251E40E941F02BB
:1036B000DC01CB01BC01CD010E944900DC01CB0142
:1036C0009E838D830FC089E190E09C838B838B81E7
:1036D0009C810197F1F79C838B838D819E8101975B
:1036E0009E838D838D819E81009769F714C06F81C1
:1036F000788589859A850E944900DC01CB019E83EB
:103700008D838D819E819A83898389819A81019796
:10371000F1F79A8389830E9453190E9462192F96A8
:103720000FB6F894DEBF0FBECDBFCF91DF910895E5
:10373000EF92FF920F931F93DF93CF93CDB7DEB736
:10374000C356D0400FB6F894DEBF0FBECDBFFE010A
:10375000E25AFF4F91838083FE01E05AFF4F71834D
:10376000608319A218A21F8E1E8E81E090E0A0E057
:10377000B0E08A8F9B8FAC8FBD8F8FEF89ABCE016E
:10378000C1960E943F1A89A98F3FC9F38E8D8F3051
:1037900019F489A98D3399F789A90E94E2158E8DB4
:1037A0008F5F8E8F89A9282F30E0A4963FAF2EAF70
:1037B000A497A4968EAD9FADA4978A33910534F556
:1037C000A4962EAD3FADA4972033310584F5A49681
:1037D0008EAD9FADA4978A3291058CF2A4962EAD42
:1037E0003FADA4972C3231050CF4A5C0A4968EAD44
:1037F0009FADA4978D32910541F1A4962EAD3FADBA
:10380000A4972F32310509F496C0B9CFA4968EAD96
:103810009FADA4978D33910509F4B8C0A4962EAD41
:103820003FADA4972336310509F4CDC5A8CF89A1B2
:10383000282F30E049A9CE018296FC01E20FF31F48
:10384000408389A18F5F89A39ACF89A1882371F0D2
:1038500089A1882F90E09C0121503040CE018296B2
:10386000FC01E20FF31F8081803271F489A1282FBF
:1038700030E049A9CE018296FC01E20FF31F40839C
:1038800089A18F5F89A37BCF89A1882F90E09C01BC
:1038900021503040CE018296FC01E20FF31F80815F
:1038A0008D32F1F488A1082F10E088A18F5F88A3E2
:1038B00089A9882F90E0A0E0B0E0BC01CD010E9472
:1038C00067059B01AC01FE01E05AFF4F0190F081BA
:1038D000E02DC801BA01A9019F010E944F0E4FCFF0
:1038E00089A1282F30E0CE018296FC01E20FF31F60
:1038F00080E2808389A18F5F89A388A1082F10E0CF
:1039000088A18F5F88A389A9882F90E0A0E0B0E00C
:10391000BC01CD010E9467059B01AC01FE01E05A8C
:10392000FF4F0190F081E02DC801BA01A9019F016C
:103930000E944F0E24CF89A1282F30E0CE0182961D
:10394000FC01E20FF31F80E2808389A18F5F89A3CE
:1039500088A1082F10E088A18F5F88A389A9882FEC
:1039600090E0A0E0B0E0BC01CD010E9467059B01A2
:10397000AC01FE01E05AFF4F0190F081E02DC8013B
:10398000BA01A9019F010E944F0EF9CE89A1282FEB
:1039900030E0CE018296FC01E20FF31F108219A2E3
:1039A00018A2ABC01D8A1E8A1F8A188E89A1282FD3
:1039B00030E0CE018296FC01E20FF31F80818D3250
:1039C000E1F58A8D9B8DAC8DBD8DB095A0959095C0
:1039D00081959F4FAF4FBF4F8A8F9B8FAC8FBD8F0D
:1039E00089A18F5F89A329C08D899E89AF89B88DF0
:1039F0002AE030E040E050E0BC01CD010E942D22E1
:103A0000AB01BC0189A1282F30E0CE018296FC01D8
:103A1000E20FF31F8081882F90E0C097AA2797FDBF
:103A2000A095BA2F840F951FA61FB71F8D8B9E8B55
:103A3000AF8BB88F89A18F5F89A389A1282F30E030
:103A4000CE018296FC01E20FF31F8081803358F093
:103A500089A1282F30E0CE018296FC01E20FF31FEE
:103A600080818A3308F289A1882F90E09C0121503F
:103A70003040CE018296FC01E20FF31F808180323C
:103A800031F18F8D082F10E08F8D8F5F8F8F8D8993
:103A90009E89AF89B88D2A8D3B8D4C8D5D8DBC0183
:103AA000CD010E942D22DC01CB01BC01CD010E9481
:103AB000B5049B01AC01FE01E25AFF4F0190F08179
:103AC000E02DC801BA01A9019F010E944F0E81E0BB
:103AD00090E0A0E0B0E08A8F9B8FAC8FBD8F89A172
:103AE000282F30E0CE018296FC01E20FF31F808187
:103AF000803219F489A18F5F89A389A1282F30E032
:103B0000CE018296FC01E20FF31F8081882309F029
:103B100049CF82E061E00E941317FE01E25AFF4F95
:103B2000808191810E946D0F8C01FE01E05AFF4F50
:103B3000808191810E946D0F01960817190791F1FC
:103B400089E690E00E94CB168CE00E94BA16CE0166
:103B5000C1960E943F1A89A98F3FC9F31E8E19A2F0
:103B600018A21F8E0E945319CE01805A9F4F0E94A7
:103B7000D80FCE01825A9F4F0E94D80F1C8A0CC0CA
:103B80008C89282F30E0CE018296FC01E20FF31FD2
:103B900010828C898F5F8C8B8C898A3088F30E948D
:103BA0006219EDCD198E898D882F90E0FE01E05AC3
:103BB000FF4F408151819E012A5C3F4FB9010E9415
:103BC0007D0F8EA99FA9A8ADB9ADBC01CD0120E0A4
:103BD00030E048E252E40E94C503882309F061C046
:103BE000898D882F90E0FE01E25AFF4F408151817C
:103BF0009E01265C3F4FB9010E947D0F898D882F61
:103C000090E00196FE01E25AFF4F408151819E01F2
:103C1000225C3F4FB9010E947D0F8AAD9BADACADD8
:103C2000BDADFE01FE962081318142815381BC01F0
:103C3000CD010E941F02DC01CB018AAF9BAFACAF6C
:103C4000BDAF898D882F90E02AAD3BAD4CAD5DAD09
:103C5000FE01E25AFF4F0190F081E02DBA01A90167
:103C60009F010E94A90F898D882F90E00196FE0187
:103C7000E25AFF4F408151819E01225C3F4FB901C2
:103C80000E94DD0E898D882F90E0FE01E05AFF4FE3
:103C9000408151819E012A5C3F4FB9010E94DD0E97
:103CA000C0C08EA99FA9A8ADB9ADBC01CD0120E0CF
:103CB00030E04CE352E40E94C503882309F0AEC013
:103CC000898D882F90E0FE01E25AFF4F408151819B
:103CD0009E012E5B3F4FB9010E947D0F898D882F79
:103CE00090E00196FE01E25AFF4F408151819E0112
:103CF0002A5B3F4FB9010E947D0FFE01EA5BFF4F37
:103D000080819181A281B381BC01CD0120E030E0AE
:103D100040E050E00E94C503882391F58AE790E0D7
:103D20000E94CB168CE00E94BA16CE01C1960E946A
:103D30003F1A89A98F3FC9F31E8E19A218A21F8EA0
:103D40000E945319CE01805A9F4F0E94D80FCE0176
:103D5000825A9F4F0E94D80F1A8A0CC08A89282F36
:103D600030E0CE018296FC01E20FF31F10828A89B7
:103D70008F5F8A8B8A898A3088F30E946219FFCC10
:103D8000FE01EE5BFF4F80819181A281B381FE0134
:103D9000EA5BFF4F2081318142815381BC01CD011B
:103DA0000E941903DC01CB01FE01EE5BFF4F808313
:103DB0009183A283B383898D882F90E0FE01EE5B0F
:103DC000FF4F2081318142815381FE01E25AFF4F32
:103DD0000190F081E02DBA01A9019F010E94A90F75
:103DE000898D882F90E00196FE01E25AFF4F4081B5
:103DF00051819E012A5B3F4FB9010E94DD0E898DE2
:103E0000882F90E0FE01E05AFF4F408151819E01D2
:103E10002A5C3F4FB9010E94DD0E03C0898D8F5F80
:103E2000898F1B8A198A30C08989882F90E0FE010A
:103E3000E05AFF4F408151819E012A5C3F4FB901FA
:103E40000E947D0F8EA99FA9A8ADB9ADBC01CD017F
:103E500020E030E048E252E40E94C503882371F07C
:103E60008EA99FA9A8ADB9ADBC01CD0120E030E07D
:103E70004CE352E40E94C503882319F481E08B8B44
:103E800010C089898F5F898B8989082F10E0FE0116
:103E9000E05AFF4F808191810E946D0F081719072A
:103EA0001CF28B89882309F07ECE198E898D882F8C
:103EB00090E0FE01E05AFF4F408151819E01265B58
:103EC0003F4FB9010E947D0FFE01E65BFF4F8081ED
:103ED0009181A281B381BC01CD0120E030E04CE2B0
:103EE00052E40E94C503882309F06BC0898D882F96
:103EF00090E0FE01E25AFF4F408151819E01225B1A
:103F00003F4FB9010E947D0F898D882F90E0019667
:103F1000FE01E25AFF4F408151819E012E5A3F4FD0
:103F2000B9010E947D0FFE01E25BFF4F808191810C
:103F3000A281B381FE01EE5AFF4F2081318142817F
:103F40005381BC01CD010E94F201DC01CB01FE01D5
:103F5000E25BFF4F80839183A283B383898D882F97
:103F600090E0FE01E25BFF4F20813181428153816D
:103F7000FE01E25AFF4F0190F081E02DBA01A90144
:103F80009F010E94A90F898D882F90E00196FE0164
:103F9000E25AFF4F408151819E012E5A3F4FB90195
:103FA0000E94DD0E898D882F90E0FE01E05AFF4FC0
:103FB000408151819E01265B3F4FB9010E94DD0E79
:103FC00080C0FE01E65BFF4F80819181A281B381B9
:103FD000BC01CD0120E030E044E352E40E94C5037F
:103FE000882309F06BC0898D882F90E0FE01E25A8A
:103FF000FF4F408151819E012A5A3F4FB9010E94D3
:104000007D0F898D882F90E00196FE01E25AFF4FC7
:10401000408151819E01265A3F4FB9010E947D0F78
:10402000FE01EA5AFF4F80819181A281B381FE0196
:10403000E65AFF4F2081318142815381BC01CD017D
:104040000E94C101DC01CB01FE01EA5AFF4F8083CF
:104050009183A283B383898D882F90E0FE01EA5A71
:10406000FF4F2081318142815381FE01E25AFF4F8F
:104070000190F081E02DBA01A9019F010E94A90FD2
:10408000898D882F90E00196FE01E25AFF4F408112
:1040900051819E01265A3F4FB9010E94DD0E898D44
:1040A000882F90E0FE01E05AFF4F408151819E0130
:1040B000265B3F4FB9010E94DD0E03C0898D8F5FE3
:1040C000898FFE01E05AFF4F808191810E946D0F20
:1040D000009709F0EBCEFE01E25AFF4F408151817B
:1040E0009E012E5C3F4F80E090E0B9010E947D0F61
:1040F0008AA99BA9ACA9BDA9BC01CD0120E03FEFD5
:104100004FE757E40E94850418160CF42AC18AA9C7
:104110009BA9ACA9BDA9BC01CD010E941305DC017E
:10412000CB018D879E87AF87B88BEAA8FBA80CA927
:104130001DA96D857E858F8598890E94B5049B0198
:10414000AC01C801B7010E94C101DC01CB01898724
:104150009A87AB87BC878AA99BA9ACA9BDA9BC01DA
:10416000CD010E941305DC01CB018D839E83AF83BB
:10417000B8871C828D819E81AF81B8850097A1058B
:10418000B105C1F481E08C831DC08D819E81AF811A
:10419000B8852AE030E040E050E0BC01CD010E944B
:1041A0004C22DA01C9018D839E83AF83B8878C814D
:1041B0008F5F8C838D819E81AF81B8850097A1052B
:1041C000B10519F769857A858B859C8520E030E0FB
:1041D00040E050E00E94C503882311F58AA99BA9FD
:1041E000ACA9BDA9BC01CD0120E030E040E050E029
:1041F0000E945504882354F480E19C81382F391B98
:10420000932F82E0692F0E9413172BC081E19C81BC
:10421000282F291B922F82E0692F0E94131721C09B
:104220008AA99BA9ACA9BDA9BC01CD0120E030E0C1
:1042300040E050E00E945504882354F48BE09C81B8
:10424000382F391B932F82E0692F0E94131709C062
:104250008CE09C81282F291B922F82E0692F0E94DD
:1042600013178AA99BA9ACA9BDA9BC01CD010E94C5
:104270001D188CE00E94BA16CE01C1960E943F1A0A
:1042800089A98F3FC9F31E8E19A218A21F8E0E9402
:104290005319CE01805A9F4F0E94D80FCE01825AE7
:1042A0009F4F0E94D80F1B820CC08B81282F30E0BB
:1042B000CE018296FC01E20FF31F10828B818F5F8B
:1042C0008B838B818A3088F389A98B3249F089A945
:1042D0008D3231F089A98A3219F089A98F32F1F52E
:1042E0008F8D682F70E08F8D8F5F8F8F2AA93BA9EC
:1042F0004CA95DA9FE01E25AFF4F0190F081E02D2B
:10430000CB01BA01A9019F010E944F0E88A1082F7D
:1043100010E088A18F5F88A389A9882F90E0A0E092
:10432000B0E0BC01CD010E9467059B01AC01FE011C
:10433000E05AFF4F0190F081E02DC801BA01A901B8
:104340009F010E944F0E8AA99BA9ACA9BDA9BC01DF
:10435000CD010E941D1889A90E94E2150E946219D0
:104360000ECA85E890E00E94CB168CE00E94BA1637
:10437000CE01C1960E943F1A89A98F3FC9F31E8EB4
:1043800019A218A21F8E0E945319CE01805A9F4F66
:104390000E94D80FCE01825A9F4F0E94D80F1A82D6
:1043A0000CC08A81282F30E0CE018296FC01E20FFA
:1043B000F31F10828A818F5F8A838A818A3088F313
:1043C0000E946219DCC91E8E19A218A21F8E81E0FC
:1043D00090E0A0E0B0E08A8F9B8FAC8FBD8F0E94F1
:1043E0005319CE01805A9F4F0E94D80FCE01825A96
:1043F0009F4F0E94D80F19820CC08981282F30E06E
:10440000CE018296FC01E20FF31F108289818F5F3B
:10441000898389818A3088F30E946219B0C9DF9349
:10442000CF93CDB7DEB70E94FC1A80EC91E00E94DA
:10443000340E82EC91E00E94340E8091C001909184
:10444000C1012091C2013091C301B9010E94981BA2
:1044500080E090E0CF91DF910895629FD001739F3B
:10446000F001829FE00DF11D649FE00DF11D929F10
:10447000F00D839FF00D749FF00D659FF00D99274F
:10448000729FB00DE11DF91F639FB00DE11DF91F73
:10449000BD01CF011124089597FB092E05260ED0EA
:1044A00057FD04D014D00AD0001C38F45095409524
:1044B000309521953F4F4F4F5F4F0895F6F79095F8
:1044C0008095709561957F4F8F4F9F4F0895A1E222
:1044D0001A2EAA1BBB1BFD010DC0AA1FBB1FEE1F7E
:1044E000FF1FA217B307E407F50720F0A21BB30BC9
:1044F000E40BF50B661F771F881F991F1A9469F745
:1045000060957095809590959B01AC01BD01CF01A0
:1045100008952F923F924F925F926F927F928F9267
:104520009F92AF92BF92CF92DF92EF92FF920F9342
:104530001F93CF93DF93CDB7DEB7CA1BDB0B0FB64C
:10454000F894DEBF0FBECDBF09942A883988488809
:104550005F846E847D848C849B84AA84B984C8849F
:10456000DF80EE80FD800C811B81AA81B981CE0F96
:10457000D11D0FB6F894DEBF0FBECDBFED0108957B
:10458000CF93DF93BC018230910510F462E070E0BC
:10459000A091C601B091C701ED01E0E0F0E040E07C
:1045A00050E021C0888199818617970769F48A8134
:1045B0009B81309719F09383828304C09093C70145
:1045C0008093C601FE0134C06817790738F441159D
:1045D000510519F08417950708F4AC01FE018A8192
:1045E0009B819C01E9012097E9F641155105A9F14C
:1045F000CA01861B970B049708F4BA01E0E0F0E0CB
:104600002AC08D919C91119784179507F9F464172E
:10461000750781F412968D919C911397309719F03C
:104620009383828304C09093C7018093C601FD01E8
:1046300032964FC0CA01861B970BFD01E80FF91F88
:104640006193719302978D939C9343C0FD01828186
:1046500093819C01D9011097A1F68091C40190919A
:10466000C501892B41F480919C0190919D0190930B
:10467000C5018093C40140919E0150919F01411555
:10468000510541F44DB75EB780919A0190919B011D
:10469000481B590B2091C4013091C50124173507DF
:1046A000B0F4CA01821B930B8617970780F0AB0109
:1046B0004E5F5F4F8417950750F0420F531F509382
:1046C000C5014093C401F9016193719302C0E0E018
:1046D000F0E0CF01DF91CF910895CF93DF93009762
:1046E00009F450C0EC0122971B821A82A091C601E6
:1046F000B091C701109709F140E050E0AC17BD0739
:1047000008F1BB83AA83FE0121913191E20FF31FCF
:10471000AE17BF0779F48D919C911197280F391F1F
:104720002E5F3F4F3983288312968D919C9113976A
:104730009B838A834115510571F4D093C701C093BF
:10474000C60120C012968D919C911397AD010097E0
:1047500011F0DC01D3CFFA01D383C28321913191CF
:10476000E20FF31FCE17DF0769F488819981280FC4
:10477000391F2E5F3F4FFA01318320838A819B814D
:0E47800093838283DF91CF910895F894FFCF49
:10478E0057454C434F4D45210057726F6E6720655C
:10479E00787072657373696F6E004D617468206511
:1047AE0072726F72004F7574206F662072616E6741
:1047BE00650000000000000000000001020203037B
:1047CE000303040404040404040405050505050597
:1047DE000505050505050505050506060606060675
:1047EE00060606060606060606060606060606065B
:1047FE000606060606060606060607070707070745
:10480E00070707070707070707070707070707072A
:10481E00070707070707070707070707070707071A
:10482E00070707070707070707070707070707070A
:10483E0007070707070707070707080808080808F4
:10484E0008080808080808080808080808080808DA
:10485E0008080808080808080808080808080808CA
:10486E0008080808080808080808080808080808BA
:10487E0008080808080808080808080808080808AA
:10488E00080808080808080808080808080808089A
:10489E00080808080808080808080808080808088A
:1048AE00080808080808080808080808080808087A
:1048BE00080808080808080808082000C8010000B1
:1048CE003738392F3435362A3132332D63303D2B7C
:1048DE0000010203020202020001020303030303AA
:00000001FF
