:100000000C942A000C9447000C9447000C94470071
:100010000C9447000C9447000C9447000C94470044
:100020000C9447000C9447000C9447000C94470034
:100030000C9447000C9447000C9447000C94470024
:100040000C9447000C9447000C9447000C94470014
:100050000C94470011241FBECFE5D8E0DEBFCDBF12
:1000600011E0A0E6B0E0ECEEF6E402C005900D92DF
:10007000A43CB107D9F711E0A4ECB1E001C01D9296
:10008000A03EB107E1F70E94FC1A0C9474230C9473
:100090000000EF92FF920F931F937B018C0120E0F1
:1000A00030E040E05FE40E94250488238CF0C80122
:1000B000B70120E030E040E05FE40E94C1010E940F
:1000C00013059B01AC01205030404040504806C011
:1000D000C801B7010E9413059B01AC01B901CA0117
:1000E0001F910F91FF90EF900895A0E0B0E0EBE733
:1000F000F0E00C943822DC012B01FA019C91923043
:1001000008F439C1EB018881823008F433C194309E
:1001100069F4843009F02FC111969C91119789815F
:10012000981709F428C1A2E9B0E025C1843009F488
:1001300021C18230A9F4923009F01DC19A01AD01AC
:1001400088E0EA010990AE01E90109929E0181501F
:10015000C1F7E201898111969C918923818308C1AD
:10016000923009F407C112962D903C901397EB0141
:100170008A819B811496AD90BD90CD90DC901797AD
:10018000EC80FD800E811F819101281B390BB90184
:1001900037FF04C066277727621B730B6032710537
:1001A0000CF061C0121613066CF537014801062EDB
:1001B00004C096948794779467940A94D2F721E0C8
:1001C00030E040E050E004C0220F331F441F551FB1
:1001D0006A95D2F721503040404050402E213F21B7
:1001E00040235123211531054105510521F021E01E
:1001F00030E040E050E079018A01E628F72808293C
:1002000019293CC0232BD1F1260E371E350146019A
:10021000062E04C096948794779467940A94D2F734
:1002200021E030E040E050E004C0220F331F441FC3
:10023000551F6A95D2F721503040404050402A2146
:100240003B214C215D21211531054105510521F04E
:1002500021E030E040E050E059016A01A628B728CB
:10026000C828D9280BC0821593052CF01C01AA249C
:10027000BB24650103C0EE24FF24870111969C91E5
:10028000D20111968C91981709F445C0992339F041
:10029000A80197012A193B094C095D0906C0A6016E
:1002A00095012E193F09400B510B57FD08C01182D3
:1002B0003382228224833583468357831DC081E0A5
:1002C00081833382228288279927DC01821B930B4A
:1002D000A40BB50B84839583A683B7830DC0220F2F
:1002E000331F441F551F24833583468357838281E0
:1002F000938101979383828324813581468157813D
:10030000DA01C9010197A109B1098F5F9F4FAF4F72
:10031000BF4328F30BC0918333822282EA0CFB1C7B
:100320000C1D1D1DE482F5820683178383E0808304
:10033000248135814681578157FF1AC0C901AA27F8
:1003400097FDA095BA2F81709070A070B0705695EF
:10035000479537952795822B932BA42BB52B848318
:100360009583A683B7838281938101969383828349
:10037000DF0101C0D201CD01CDB7DEB7E2E10C94BF
:100380005422A0E2B0E0E7ECF1E00C94442269834F
:100390007A838B839C832D833E834F835887E9E048
:1003A000EE2EF12CEC0EFD1ECE010196B7010E943F
:1003B00004078E010F5E1F4FCE010596B8010E9403
:1003C00004078A8991E089278A8BC701B801AE01A9
:1003D000475E5F4F0E9475000E942F06A096E6E0E0
:1003E0000C946022A0E2B0E0E8EFF1E00C9444222B
:1003F00069837A838B839C832D833E834F835887C5
:10040000F9E0EF2EF12CEC0EFD1ECE010196B701A6
:100410000E9404078E010F5E1F4FCE010596B801A2
:100420000E940407C701B801AE01475E5F4F0E94FA
:1004300075000E942F06A096E6E00C946022A0E2D0
:10044000B0E0E5E2F2E00C94382269837A838B8392
:100450009C832D833E834F835887CE010196BE0136
:10046000675F7F4F0E940407CE010596BE016F5E55
:100470007F4F0E9404079985923088F089898230E5
:10048000C8F0943019F4823051F404C0843029F457
:10049000923081F482E990E0C6C0923049F420E0C5
:1004A0009A858A89981321E02A87CE010996BBC0D4
:1004B000823049F420E09A858A89981321E02A8BBA
:1004C000CE014196B0C02D843E844F8458886D88FB
:1004D0007E888F88988CEE24FF248701AA24BB2471
:1004E000650140E050E060E070E0E0E0F0E0C10174
:1004F00081709070892BE9F0E60CF71C081D191D1E
:100500009A01AB012A0D3B1D4C1D5D1D80E090E062
:10051000A0E0B0E0E614F7040805190520F481E036
:1005200090E0A0E0B0E0BA01A901480F591F6A1F8E
:100530007B1FAA0CBB1CCC1CDD1C97FE08C081E0F5
:1005400090E0A0E0B0E0A82AB92ACA2ADB2A3196B6
:10055000E032F10549F0660C771C881C991C569412
:10056000479437942794C3CFFA85EA892B893C892D
:100570008B859C85280F391F2E5F3F4F17C0CA01FE
:1005800081709070892B61F016950795F794E79428
:1005900080E090E0A0E0B0E8E82AF92A0A2B1B2BC3
:1005A00076956795579547952F5F3F4F77FDE7CF36
:1005B0000CC0440F551F661F771F17FD4160EE0CDE
:1005C000FF1C001F111F21503040403090E05907A0
:1005D00090E0690790E4790760F32B8F3C8FDB0193
:1005E000CA018F779070A070B07080349105A1051A
:1005F000B10561F447FD0AC0E114F10401051105DC
:1006000029F0405C5F4F6F4F7F4F40781A8EFE1786
:1006100011F081E08A8F4D8F5E8F6F8F78A383E01A
:10062000898FCE0149960E942F06A096E2E10C9494
:100630005422A8E1B0E0EFE1F3E00C94402269839A
:100640007A838B839C832D833E834F835887B9E0C5
:10065000EB2EF12CEC0EFD1ECE010196B7010E948F
:1006600004078E010F5E1F4FCE010596B8010E9450
:1006700004072985223008F47EC03989323010F40D
:10068000B8017CC08A859A8989278A87243011F02D
:10069000223031F4231709F06EC062E970E06EC0B9
:1006A000343039F41D861E861F86188A1C861B86E8
:1006B00004C0323021F484E08987B7015FC02B8504
:1006C0003C858B899C89281B390B3C872B87ED84C3
:1006D000FE840F851889AD88BE88CF88D88CEA142F
:1006E000FB040C051D0540F4EE0CFF1C001F111F40
:1006F000215030403C872B8720E030E040E050E044
:1007000080E090E0A0E0B0E460E070E0EA14FB0478
:100710000C051D0540F0282B392B4A2B5B2BEA18C2
:10072000FB080C091D09B695A79597958795EE0CC2
:10073000FF1C001F111F6F5F7F4F6F31710531F775
:10074000DA01C9018F779070A070B0708034910584
:10075000A105B10561F427FD0AC0E114F10401050A
:10076000110529F0205C3F4F4F4F5F4F20782D87B8
:100770003E874F87588BBE01675F7F4FCB010E943A
:100780002F066896EAE00C945C22A8E1B0E0EBEC5E
:10079000F3E00C94442269837A838B839C832D83BA
:1007A0003E834F83588789E0E82EF12CEC0EFD1E26
:1007B000CE010196B7010E9404078E010F5E1F4F04
:1007C000CE010596B8010E9404078985823040F069
:1007D0008989823028F0C701B8010E947C0701C0D6
:1007E00081E06896E6E00C946022A8E1B0E0EBEFCF
:1007F000F3E00C94442269837A838B839C832D835A
:100800003E834F83588789E0E82EF12CEC0EFD1EC5
:10081000CE010196B7010E9404078E010F5E1F4FA3
:10082000CE010596B8010E9404078985823040F008
:100830008989823028F0C701B8010E947C0701C075
:100840008FEF6896E6E00C946022A8E1B0E0EBE25E
:10085000F4E00C94442269837A838B839C832D83F8
:100860003E834F83588789E0E82EF12CEC0EFD1E65
:10087000CE010196B7010E9404078E010F5E1F4F43
:10088000CE010596B8010E9404078985823040F0A8
:100890008989823028F0C701B8010E947C0701C015
:1008A0008FEF6896E6E00C946022A8E1B0E0EBE5FB
:1008B000F4E00C94442269837A838B839C832D8398
:1008C0003E834F83588789E0E82EF12CEC0EFD1E05
:1008D000CE010196B7010E9404078E010F5E1F4FE3
:1008E000CE010596B8010E9404078985823040F048
:1008F0008989823028F0C701B8010E947C0701C0B5
:1009000081E06896E6E00C946022A8E1B0E0EBE8B4
:10091000F4E00C94442269837A838B839C832D8337
:100920003E834F83588789E0E82EF12CEC0EFD1EA4
:10093000CE010196B7010E9404078E010F5E1F4F82
:10094000CE010596B8010E9404078985823040F0E7
:100950008989823028F0C701B8010E947C0701C054
:1009600081E06896E6E00C946022A8E0B0E0EBEB52
:10097000F4E00C9441229B01AC0183E08983DA010D
:10098000C9018827B7FD83959927AA27BB27B82EC9
:10099000211531054105510519F482E089833AC0DA
:1009A0008823A9F0203080E0380780E0480780E8FD
:1009B000580729F460E070E080E09FEC30C0EE243E
:1009C000FF248701E21AF30A040B150B02C0790118
:1009D0008A018EE1C82ED12CDC82CB82ED82FE8290
:1009E0000F831887C801B7010E94E0050197181608
:1009F000190684F4082E04C0EE0CFF1C001F111F02
:100A00000A94D2F7ED82FE820F831887C81AD90A9A
:100A1000DC82CB82BA82CE0101960E942F062896F4
:100A2000E9E00C945D22ACE0B0E0E9E1F5E00C9483
:100A3000482269837A838B839C83CE010196BE0111
:100A40006B5F7F4F0E9404078D81823061F182309D
:100A500050F1843021F48E81882351F12EC02F81F2
:100A6000388537FD20C06E812F3131051CF066239B
:100A7000F9F023C08EE190E0821B930B29853A8523
:100A80004B855C8504C056954795379527958A9583
:100A9000D2F76623B1F050954095309521953F4FA0
:100AA0004F4F5F4F0EC020E030E040E050E009C003
:100AB0002FEF3FEF4FEF5FE704C020E030E040E072
:100AC00050E8B901CA012C96E2E00C946422A8E037
:100AD000B0E0EDE6F5E00C9440227B018C0161155D
:100AE00071058105910519F482E0898360C083E076
:100AF00089838EE1C82ED12CDC82CB82ED82FE82EE
:100B00000F831887C801B7010E94E005FC013197E7
:100B1000F7FF3BC0222733272E1B3F0B57016801ED
:100B2000022E04C0D694C794B794A7940A94D2F71F
:100B300040E050E060E070E081E090E0A0E0B0E0F4
:100B400004C0880F991FAA1FBB1F2A95D2F70197CF
:100B5000A109B1098E219F21A023B1230097A105EE
:100B6000B10521F041E050E060E070E04A295B29E6
:100B70006C297D294D835E836F8378878EE190E0B9
:100B80008E1B9F0B9C838B8312C0309781F00E2E9F
:100B900004C0EE0CFF1C001F111F0A94D2F7ED8257
:100BA000FE820F831887CE1ADF0ADC82CB821A827C
:100BB000CE0101960E942F062896EAE00C945C2252
:100BC000EF92FF920F931F937B018C0180E0E81658
:100BD00080E0F80681E0080780E0180788F48FEFCE
:100BE000E816F1040105110531F028F088E090E0E5
:100BF000A0E0B0E017C080E090E0A0E0B0E012C05C
:100C000080E0E81680E0F80680E0080781E0180739
:100C100028F088E190E0A0E0B0E004C080E190E03E
:100C2000A0E0B0E020E230E040E050E0281B390BCB
:100C30004A0B5B0B04C016950795F794E7948A95C9
:100C4000D2F7F701E656FF4F8081281B3109410991
:100C50005109C9011F910F91FF90EF900895DF9204
:100C6000EF92FF920F931F93FC01E480F5800681C1
:100C70001781D1808081823048F480E090E0A0E14B
:100C8000B0E0E82AF92A0A2B1B2BA5C0843009F40E
:100C90009FC0823021F4EE24FF24870105C0E114B7
:100CA000F1040105110519F4E0E0F0E096C062815D
:100CB00073819FEF623879070CF05BC022E83FEF49
:100CC000261B370B2A3131052CF020E030E040E0C4
:100CD00050E02AC0B801A701022E04C0769567959E
:100CE000579547950A94D2F781E090E0A0E0B0E0F4
:100CF00004C0880F991FAA1FBB1F2A95D2F701971E
:100D0000A109B1098E219F21A023B1230097A1053C
:100D1000B10521F081E090E0A0E0B0E09A01AB01E4
:100D2000282B392B4A2B5B2BDA01C9018F77907066
:100D3000A070B07080349105A105B10539F427FF8A
:100D400009C0205C3F4F4F4F5F4F04C0215C3F4FB5
:100D50004F4F5F4FE0E0F0E02030A0E03A07A0E026
:100D60004A07A0E45A0710F0E1E0F0E079018A01B7
:100D700027C06038710564F5FB01E158FF4FD801C9
:100D8000C7018F779070A070B07080349105A10575
:100D9000B10539F4E7FE0DC080E490E0A0E0B0E0DA
:100DA00004C08FE390E0A0E0B0E0E80EF91E0A1F57
:100DB0001B1F17FF05C016950795F794E79431960A
:100DC00087E016950795F794E7948A95D1F705C0C3
:100DD000EE24FF248701EFEFF0E06E2F6795662782
:100DE0006795902F9F77D794DD24D7948E2F869583
:100DF000492F462B582F5D29B701CA011F910F912A
:100E0000FF90EF90DF900895FC01DB01408151815C
:100E10002281622F6F7770E0221F2227221F938189
:100E2000892F880F822B282F30E0991F9927991F2F
:100E300011969C93119721153105A9F5411551057E
:100E40006105710511F482E037C082E89FEF1396C7
:100E50009C938E9312979A01AB0167E0220F331F88
:100E6000441F551F6A95D1F783E08C930DC0220F64
:100E7000331F441F551F12968D919C911397019714
:100E800013969C938E931297203080E0380780E071
:100E9000480780E4580758F314962D933D934D93DB
:100EA0005C93179708952F3F310579F4411551054B
:100EB0006105710519F484E08C93089564FF03C003
:100EC00081E08C9312C01C9210C02F5730401396B3
:100ED0003C932E93129783E08C9387E0440F551F29
:100EE000661F771F8A95D1F7706414964D935D93B2
:100EF0006D937C93179708951F93DC01FB019C91E0
:100F0000923008F447C08081823008F443C09430A6
:100F100051F411961C91843099F58181682F70E00D
:100F2000611B71093FC0843021F0923031F482306E
:100F3000B9F18181882389F12DC011961C911197F7
:100F40008230F1F081811817D9F412962D913C91DD
:100F50001397828193818217930794F0281739079A
:100F6000BCF014968D919D910D90BC91A02D248183
:100F7000358146815781281739074A075B0718F4DE
:100F8000112341F00AC082179307A407B50740F464
:100F9000112319F061E070E005C06FEF7FEF02C030
:100FA00060E070E0CB011F910895DF93CF930F9223
:100FB000CDB7DEB71982EAE3F0E08FEF8083E7E395
:100FC000F0E08FEF8083E4E3F0E08FEF8083E1E3F4
:100FD000F0E08FEF8083EBE3F0E01082E8E3F0E0F5
:100FE0001082E5E3F0E01082E2E3F0E0108281E0BD
:100FF000898389810F90CF91DF910895DF93CF93FB
:1010000000D000D00F92CDB7DEB78A836B831982F0
:101010008A818430A8F58A81282F30E03D832C8393
:101020008C819D8181309105D1F02C813D812230D0
:1010300031052CF48C819D81009761F01EC02C81BC
:101040003D812230310581F08C819D818330910575
:1010500081F013C0EAE3F0E08B8180830EC0E7E308
:10106000F0E08B81808309C0E4E3F0E08B81808332
:1010700004C0E1E3F0E08B81808381E0898302C0DA
:1010800083E0898389810F900F900F900F900F90CC
:10109000CF91DF910895DF93CF9300D000D00F92CE
:1010A000CDB7DEB78A836B8319828A818430A8F535
:1010B0008A81282F30E03D832C838C819D81813073
:1010C0009105D1F02C813D81223031052CF48C81A9
:1010D0009D81009761F01EC02C813D812230310539
:1010E00081F08C819D818330910581F013C0EBE309
:1010F000F0E08B8180830EC0E8E3F0E08B81808399
:1011000009C0E5E3F0E08B81808304C0E2E3F0E016
:101110008B81808381E0898302C083E08983898118
:101120000F900F900F900F900F90CF91DF91089537
:10113000DF93CF9300D000D0CDB7DEB78A8319827A
:101140008A81843008F041C08A81282F30E03C83B6
:101150002B838B819C8181309105E9F02B813C812F
:10116000223031052CF48B819C81009761F02AC0DC
:101170002B813C8122303105B1F08B819C81833001
:101180009105C9F01FC0AAE3B0E0EAE3F0E0808176
:1011900080958C9317C0A7E3B0E0E7E3F0E080818F
:1011A00080958C930FC0A4E3B0E0E4E3F0E080818D
:1011B00080958C9307C0A1E3B0E0E1E3F0E080818B
:1011C00080958C9381E0898302C083E08983898143
:1011D0000F900F900F900F90CF91DF910895DF93B4
:1011E000CF9300D000D0CDB7DEB78A8319828A8131
:1011F000843008F041C08A81282F30E03C832B8363
:101200008B819C8181309105E9F02B813C812230DA
:1012100031052CF48B819C81009761F02AC02B81D1
:101220003C8122303105B1F08B819C818330910566
:10123000C9F01FC0ABE3B0E0EBE3F0E08081809544
:101240008C9317C0A8E3B0E0E8E3F0E080818095DC
:101250008C930FC0A5E3B0E0E5E3F0E080818095DA
:101260008C9307C0A2E3B0E0E2E3F0E080818095D8
:101270008C9381E0898302C083E0898389810F9008
:101280000F900F900F90CF91DF910895DF93CF9340
:1012900000D000D000D0CDB7DEB78A837C836B83CB
:1012A00019828A81843008F044C08B819C81009728
:1012B000E9F18A81282F30E03E832D838D819E8144
:1012C00081309105E1F02D813E81223031052CF4F1
:1012D0008D819E81009761F026C02D813E81223054
:1012E0003105A1F08D819E8183309105B1F01BC045
:1012F000EAE3F0E08081EB81FC81808314C0E7E3C6
:10130000F0E08081EB81FC8180830DC0E4E3F0E0BC
:101310008081EB81FC81808306C0E1E3F0E0808185
:10132000EB81FC81808381E0898305C082E0898331
:1013300002C083E08983898126960FB6F894DEBFC8
:101340000FBECDBFCF91DF910895DF93CF9300D033
:1013500000D000D0CDB7DEB78A837C836B8319823F
:101360008A81843008F044C08B819C810097E9F128
:101370008A81282F30E03E832D838D819E818130AC
:101380009105E1F02D813E81223031052CF48D81D3
:101390009E81009761F026C02D813E81223031056B
:1013A000A1F08D819E8183309105B1F01BC0E9E3EE
:1013B000F0E08081EB81FC81808314C0E6E3F0E003
:1013C0008081EB81FC8180830DC0E3E3F0E08081CC
:1013D000EB81FC81808306C0E0E3F0E08081EB815B
:1013E000FC81808381E0898305C082E0898302C01B
:1013F00083E08983898126960FB6F894DEBF0FBEFD
:10140000CDBFCF91DF910895DF93CF9300D000D06F
:1014100000D0CDB7DEB78A836B834C8319828A8173
:10142000843008F0D1C08B81883008F0CDC08C8129
:10143000823008F0C9C08A81282F30E03E832D8396
:101440006D817E816130710509F441C08D819E817D
:101450008230910534F42D813E812115310571F0E2
:10146000B0C06D817E816230710509F459C08D81F3
:101470009E818330910509F47CC0A3C0AAE3B0E04B
:10148000EAE3F0E08081482F8B81282F30E081E073
:1014900090E002C0880F991F2A95E2F78095842377
:1014A0008C93AAE3B0E0EAE3F0E08081482F8C81DE
:1014B000282F30E08B81882F90E0B90102C0660FA1
:1014C000771F8A95E2F7CB01842B8C937AC0A7E330
:1014D000B0E0E7E3F0E08081482F8B81282F30E0F7
:1014E00081E090E002C0880F991F2A95E2F780956D
:1014F00084238C93A7E3B0E0E7E3F0E08081482FFA
:101500008C81282F30E08B81882F90E0B90102C0B8
:10151000660F771F8A95E2F7CB01842B8C9351C01D
:10152000A4E3B0E0E4E3F0E08081482F8B81282F32
:1015300030E081E090E002C0880F991F2A95E2F721
:10154000809584238C93A4E3B0E0E4E3F0E0808111
:10155000482F8C81282F30E08B81882F90E0B901B3
:1015600002C0660F771F8A95E2F7CB01842B8C931C
:1015700028C0A1E3B0E0E1E3F0E08081482F8B8157
:10158000282F30E081E090E002C0880F991F2A9553
:10159000E2F7809584238C93A1E3B0E0E1E3F0E0EF
:1015A0008081482F8C81282F30E08B81882F90E01C
:1015B000B90102C0660F771F8A95E2F7CB01842B31
:1015C0008C9381E0898302C083E089838981269698
:1015D0000FB6F894DEBF0FBECDBFCF91DF91089557
:1015E000DF93CF9300D000D000D0CDB7DEB78A8391
:1015F0006B834C8319828A81843008F0D1C08B813F
:10160000883008F0CDC08C81823008F0C9C08A8152
:10161000282F30E03E832D836D817E8161307105FE
:1016200009F441C08D819E818230910534F42D8171
:101630003E812115310571F0B0C06D817E8162302F
:10164000710509F459C08D819E818330910509F49B
:101650007CC0A3C0ABE3B0E0EBE3F0E08081482FB7
:101660008B81282F30E081E090E002C0880F991F25
:101670002A95E2F7809584238C93ABE3B0E0EBE30B
:10168000F0E08081482F8C81282F30E08B81882FDB
:1016900090E0B90102C0660F771F8A95E2F7CB018F
:1016A000842B8C937AC0A8E3B0E0E8E3F0E080817B
:1016B000482F8B81282F30E081E090E002C0880F16
:1016C000991F2A95E2F7809584238C93A8E3B0E0D4
:1016D000E8E3F0E08081482F8C81282F30E08B8177
:1016E000882F90E0B90102C0660F771F8A95E2F754
:1016F000CB01842B8C9351C0A5E3B0E0E5E3F0E08F
:101700008081482F8B81282F30E081E090E002C05B
:10171000880F991F2A95E2F7809584238C93A5E37F
:10172000B0E0E5E3F0E08081482F8C81282F30E0A5
:101730008B81882F90E0B90102C0660F771F8A95D0
:10174000E2F7CB01842B8C9328C0A2E3B0E0E2E364
:10175000F0E08081482F8B81282F30E081E090E0FD
:1017600002C0880F991F2A95E2F7809584238C93F5
:10177000A2E3B0E0E2E3F0E08081482F8C81282FE3
:1017800030E08B81882F90E0B90102C0660F771F8F
:101790008A95E2F7CB01842B8C9381E0898302C088
:1017A00083E08983898126960FB6F894DEBF0FBE49
:1017B000CDBFCF91DF910895DF93CF9300D000D0BC
:1017C0000F92CDB7DEB78A836B8319828A8184300A
:1017D00008F075C08B81883008F071C08A81282F8D
:1017E00030E03D832C838C819D818130910549F1CE
:1017F0002C813D81223031052CF48C819D81009714
:1018000061F05AC02C813D812230310571F18C810B
:101810009D8183309105E9F14FC0AAE3B0E0EAE38E
:10182000F0E08081482F8B81282F30E081E090E02C
:10183000022E02C0880F991F0A94E2F784278C9326
:101840003BC0A7E3B0E0E7E3F0E08081482F8B8165
:10185000282F30E081E090E0022E02C0880F991F0F
:101860000A94E2F784278C9327C0A4E3B0E0E4E372
:10187000F0E08081482F8B81282F30E081E090E0DC
:10188000022E02C0880F991F0A94E2F784278C93D6
:1018900013C0A1E3B0E0E1E3F0E08081482F8B8149
:1018A000282F30E081E090E0022E02C0880F991FBF
:1018B0000A94E2F784278C9381E0898302C083E055
:1018C000898389810F900F900F900F900F90CF9187
:1018D000DF910895DF93CF9300D000D00F92CDB762
:1018E000DEB78A836B8319828A81843008F075C0E1
:1018F0008B81883008F071C08A81282F30E03D83C9
:101900002C838C819D818130910549F12C813D8111
:10191000223031052CF48C819D81009761F05AC0F2
:101920002C813D812230310571F18C819D81833084
:101930009105E9F14FC0ABE3B0E0EBE3F0E080816B
:10194000482F8B81282F30E081E090E0022E02C0EA
:10195000880F991F0A94E2F784278C933BC0A8E371
:10196000B0E0E8E3F0E08081482F8B81282F30E061
:1019700081E090E0022E02C0880F991F0A94E2F7DE
:1019800084278C9327C0A5E3B0E0E5E3F0E08081F5
:10199000482F8B81282F30E081E090E0022E02C09A
:1019A000880F991F0A94E2F784278C9313C0A2E34F
:1019B000B0E0E2E3F0E08081482F8B81282F30E017
:1019C00081E090E0022E02C0880F991F0A94E2F78E
:1019D00084278C9381E0898302C083E08983898195
:1019E0000F900F900F900F900F90CF91DF9108956F
:1019F000DF93CF93CDB7DEB727970FB6F894DEBF4E
:101A00000FBECDBF8A836B835D834C8319828A812D
:101A1000843008F07FC08B81883008F07BC08C81D7
:101A20009D81009709F473C08A81282F30E03F839D
:101A30002E834E815F814130510559F18E819F8106
:101A40008230910534F42E813F812115310569F0F2
:101A50005BC04E815F814230510579F18E819F815B
:101A60008330910509F43DC04FC0EAE3F0E0808186
:101A7000282F30E08B81882F90E0A90102C0559576
:101A800047958A95E2F7CA018170EC81FD818083D8
:101A90003BC0E7E3F0E08081282F30E08B81882F86
:101AA00090E0A90102C0559547958A95E2F7CA01D1
:101AB0008170EC81FD81808327C0E4E3F0E08081C8
:101AC000282F30E08B81882F90E0A90102C0559526
:101AD00047958A95E2F7CA018170EC81FD81808388
:101AE00013C0E1E3F0E08081282F30E08B81882F64
:101AF00090E0A90102C0559547958A95E2F7CA0181
:101B00008170EC81FD81808381E0898305C082E062
:101B1000898302C083E08983898127960FB6F89470
:101B2000DEBF0FBECDBFCF91DF910895DF93CF937E
:101B3000CDB7DEB727970FB6F894DEBF0FBECDBF87
:101B40008A836B835D834C8319828A81843008F099
:101B50007FC08B81883008F07BC08C819D8100978D
:101B600009F473C08A81282F30E03F832E834E8191
:101B70005F814130510559F18E819F8182309105FD
:101B800034F42E813F812115310569F05BC04E810F
:101B90005F814230510579F18E819F8183309105BB
:101BA00009F43DC04FC0E9E3F0E08081282F30E028
:101BB0008B81882F90E0A90102C0559547958A95A1
:101BC000E2F7CA018170EC81FD8180833BC0E6E3CE
:101BD000F0E08081282F30E08B81882F90E0A901F0
:101BE00002C0559547958A95E2F7CA018170EC814C
:101BF000FD81808327C0E3E3F0E08081282F30E07F
:101C00008B81882F90E0A90102C0559547958A9550
:101C1000E2F7CA018170EC81FD81808313C0E0E3AB
:101C2000F0E08081282F30E08B81882F90E0A9019F
:101C300002C0559547958A95E2F7CA018170EC81FB
:101C4000FD81808381E0898305C082E0898302C0B1
:101C500083E08983898127960FB6F894DEBF0FBE93
:101C6000CDBFCF91DF910895DF93CF9300D0CDB753
:101C7000DEB79A8389838AE290E00E946F22E9812D
:101C8000FA8191838083E981FA810190F081E02DCE
:101C9000118210820F900F90CF91DF910895DF9302
:101CA000CF93CDB7DEB72A970FB6F894DEBF0FBE3D
:101CB000CDBF9C838B834D835E836F8378873A8708
:101CC0002987E985FA858081918101979A838983A3
:101CD00028C089819A81DC01119689819A812985A0
:101CE0003A85880F991F0196880F991FF901E80F0F
:101CF000F91F208131814281538169857A85CD0127
:101D0000880F991F0196880F991FFB01E80FF91F93
:101D1000208331834283538389819A8101979A83F7
:101D2000898329813A818B819C81281739078CF618
:101D30008B819C8129853A85880F991F0196880F90
:101D4000991FF901E80FF91F8D819E81AF81B88538
:101D500080839183A283B383E985FA858081918111
:101D60000196E985FA85918380832A960FB6F894C7
:101D7000DEBF0FBECDBFCF91DF910895DF93CF932C
:101D800000D000D0CDB7DEB79A838983E981FA818C
:101D9000808191818A30910529F481E090E09C83D3
:101DA0008B8302C01C821B828B819C810F900F90C1
:101DB0000F900F90CF91DF910895DF93CF93CDB720
:101DC000DEB728970FB6F894DEBF0FBECDBF9C8359
:101DD0008B837E836D8358874F838B819C812F817A
:101DE0003885880F991F0196880F991FF901E80F10
:101DF000F91F80819181A281B381ED81FE81808371
:101E00009183A283B3838B819C8101969A8389837A
:101E100028C089819A81DC01119789819A812F815B
:101E20003885880F991F0196880F991FF901E80FCF
:101E3000F91F20813181428153816F817885CD01E5
:101E4000880F991F0196880F991FFB01E80FF91F52
:101E5000208331834283538389819A8101969A83B7
:101E60008983EF81F885808191819C0121503040E8
:101E700089819A812817390764F6EF81F885808176
:101E800091810197EF81F8859183808328960FB621
:101E9000F894DEBF0FBECDBFCF91DF910895DF93E1
:101EA000CF9300D000D0CDB7DEB79A838983E98184
:101EB000FA8180819181009729F481E090E09C83F0
:101EC0008B8302C01C821B828B819C810F900F90A0
:101ED0000F900F90CF91DF910895DF93CF9300D0B3
:101EE000CDB7DEB79A838983E981FA8180819181B8
:101EF0000F900F90CF91DF910895DF93CF9300D093
:101F000000D000D0CDB7DEB79A8389837C836B8302
:101F10005E834D8389819A812D813E81880F991F2F
:101F20000196880F991FF901E80FF91F80819181AF
:101F3000A281B381EB81FC8180839183A283B383EF
:101F400026960FB6F894DEBF0FBECDBFCF91DF91BE
:101F50000895DF93CF93CDB7DEB728970FB6F894E7
:101F6000DEBF0FBECDBF9A8389834B835C836D83B5
:101F70007E8338872F8389819A812F813885880FC6
:101F8000991F0196880F991FF901E80FF91F8B819E
:101F90009C81AD81BE8180839183A283B383289687
:101FA0000FB6F894DEBF0FBECDBFCF91DF9108957D
:101FB000DF93CF9300D0CDB7DEB79A838983E981D1
:101FC000FA810190F081E02D118210820F900F9024
:101FD000CF91DF910895DF93CF9300D000D000D050
:101FE000CDB7DEB79C838B837E836D831A82198283
:101FF0001AC089819A812B813C81880F991F019693
:10200000880F991FF901E80FF91F80819181A28142
:10201000B381ED81FE81BC01CD01099589819A8151
:1020200001969A838983EB81FC81208131818981AA
:102030009A8182179307ECF226960FB6F894DEBFCA
:102040000FBECDBFCF91DF9108950F931F93DF9304
:10205000CF93CDB7DEB7C854D0400FB6F894DEBFEB
:102060000FBECDBFFE01E95BFF4F1082FE01ED5BAD
:10207000FF4F80E090E0ACE0B2E480839183A283E4
:10208000B3838E01015C1F4FFE01ED5BFF4F60814A
:1020900071818281938120E030E04AE753E40E941D
:1020A0001F02DC01CB01F80180839183A283B383FB
:1020B000FE01FF96608171818281938120E030E092
:1020C00040E85FE30E94550488232CF481E090E00F
:1020D0009EAF8DAF46C0FE01FF9660817181828107
:1020E000938120E03FEF4FE757E40E94F503181675
:1020F00064F5FE01ED5BFF4F608171818281938108
:1021000020E030E040E251E40E941F02DC01CB01FC
:10211000BC01CD010E944900DC01CB019EAF8DAF17
:102120000FC089E190E09CAF8BAF8BAD9CAD019768
:10213000F1F79CAF8BAF8DAD9EAD01979EAF8DAF8C
:102140008DAD9EAD009769F716C0FE01FF966081C8
:102150007181828193810E944900DC01CB019EAF95
:102160008DAF8DAD9EAD9AAF89AF89AD9AAD019718
:10217000F1F79AAF89AF81E066E041E00E94040A7E
:10218000FE01E95BFF4F8083FE01E95BFF4F808129
:10219000813041F0FE01E95BFF4F808129968FAFCE
:1021A000299723C381E065E041E00E94040AFE0113
:1021B000E95BFF4F8083FE01E95BFF4F8081813047
:1021C00041F0FE01E95BFF4F808129968FAF29978F
:1021D0000CC381E064E041E00E94040AFE01E95B77
:1021E000FF4F8083FE01E95BFF4F8081813041F02A
:1021F000FE01E95BFF4F808129968FAF2997F5C2D9
:1022000080E060E041E00E94040AFE01E95BFF4FCC
:102210008083FE01E95BFF4F8081813041F0FE0148
:10222000E95BFF4F808129968FAF2997DEC280E05E
:1022300061E041E00E94040AFE01E95BFF4F8083F8
:10224000FE01E95BFF4F8081813041F0FE01E95BD7
:10225000FF4F808129968FAF2997C7C280E062E047
:1022600041E00E94040AFE01E95BFF4F8083FE010A
:10227000E95BFF4F8081813041F0FE01E95BFF4F58
:10228000808129968FAF2997B0C280E063E041E05A
:102290000E94040AFE01E95BFF4F8083FE01E95BB7
:1022A000FF4F8081813041F0FE01E95BFF4F80816B
:1022B00029968FAF299799C280E064E041E00E949F
:1022C000040AFE01E95BFF4F8083FE01E95BFF4FDB
:1022D0008081813041F0FE01E95BFF4F80812996CA
:1022E0008FAF299782C280E065E041E00E94040A36
:1022F000FE01E95BFF4F8083FE01E95BFF4F8081B8
:10230000813041F0FE01E95BFF4F808129968FAF5C
:1023100029976BC280E066E041E00E94040AFE015A
:10232000E95BFF4F8083FE01E95BFF4F80818130D5
:1023300041F0FE01E95BFF4F808129968FAF29971D
:1023400054C280E067E041E00E94040AFE01E95BBC
:10235000FF4F8083FE01E95BFF4F8081813041F0B8
:10236000FE01E95BFF4F808129968FAF29973DC21F
:1023700088E30E940414FE01E95BFF4F8083FE01A5
:10238000E95BFF4F8081813041F0FE01E95BFF4F47
:10239000808129968FAF299728C280E090E0A0E83D
:1023A000BFE38DAB9EABAFABB8AF6DA97EA98FA9D4
:1023B00098AD20E030E04AE753E40E941F02DC01C0
:1023C000CB0189AB9AABABABBCAB69A97AA98BA9A2
:1023D0009CA920E030E040E85FE30E945504882398
:1023E0002CF481E090E098AB8FA73FC069A97AA94F
:1023F0008BA99CA920E03FEF4FE757E40E94F5032B
:1024000018164CF56DA97EA98FA998AD20E030E093
:1024100040E251E40E941F02DC01CB01BC01CD016E
:102420000E944900DC01CB0198AB8FA70FC089E166
:1024300090E09EA78DA78DA59EA50197F1F79EA779
:102440008DA78FA598A9019798AB8FA78FA598A95D
:10245000009769F714C069A97AA98BA99CA90E9461
:102460004900DC01CB0198AB8FA78FA598A99CA749
:102470008BA78BA59CA50197F1F79CA78BA78CE058
:102480000E940414FE01E95BFF4F8083FE01E95BBB
:10249000FF4F8081813041F0FE01E95BFF4F808179
:1024A00029968FAF2997A1C180E090E0A0E8BFE313
:1024B0008FA398A7A9A7BAA76FA178A589A59AA560
:1024C00020E030E04AE753E40E941F02DC01CB0128
:1024D0008BA39CA3ADA3BEA36BA17CA18DA19EA148
:1024E00020E030E040E85FE30E94550488232CF4AC
:1024F00081E090E09AA389A33FC06BA17CA18DA14C
:102500009EA120E03FEF4FE757E40E94F503181625
:102510004CF56FA178A589A59AA520E030E040E2AE
:1025200051E40E941F02DC01CB01BC01CD010E94DD
:102530004900DC01CB019AA389A30FC089E190E097
:1025400098A38F8F8F8D98A10197F1F798A38F8F04
:1025500089A19AA101979AA389A389A19AA1009719
:1025600069F714C06BA17CA18DA19EA10E944900B6
:10257000DC01CB019AA389A389A19AA19E8F8D8F9B
:102580008D8D9E8D0197F1F79E8F8D8F81E00E943A
:102590000414FE01E95BFF4F8083FE01E95BFF4FFE
:1025A0008081813041F0FE01E95BFF4F80812996F7
:1025B0008FAF29971AC180E090E0A0E4B0E4898F42
:1025C0009A8FAB8FBC8F698D7A8D8B8D9C8D20E01F
:1025D00030E04AE753E40E941F02DC01CB018D8BFF
:1025E0009E8BAF8BB88F6D897E898F89988D20E007
:1025F00030E040E85FE30E94550488232CF481E03A
:1026000090E09C8B8B8B3FC06D897E898F89988DE4
:1026100020E03FEF4FE757E40E94F50318164CF512
:10262000698D7A8D8B8D9C8D20E030E040E251E405
:102630000E941F02DC01CB01BC01CD010E944900B8
:10264000DC01CB019C8B8B8B0FC089E190E09A8BD6
:10265000898B89899A890197F1F79A8B898B8B8964
:102660009C8901979C8B8B8B8B899C89009769F740
:1026700014C06D897E898F89988D0E944900DC0184
:10268000CB019C8B8B8B8B899C89988B8F878F85BB
:1026900098890197F1F7988B8F8786E00E94041440
:1026A000FE01E95BFF4F8083FE01E95BFF4F808104
:1026B000813041F0FE01E95BFF4F808129968FAFA9
:1026C000299793C080E090E0A0E8BFE38B879C87C8
:1026D000AD87BE876B857C858D859E8520E030E04B
:1026E0004AE753E40E941F02DC01CB018F839887E5
:1026F000A987BA876F81788589859A8520E030E03F
:1027000040E85FE30E94550488232CF481E090E0C8
:102710009E838D833FC06F81788589859A8520E06F
:102720003FEF4FE757E40E94F50318164CF56B8511
:102730007C858D859E8520E030E040E251E40E945A
:102740001F02DC01CB01BC01CD010E944900DC016C
:10275000CB019E838D830FC089E190E09C838B83A6
:102760008B819C810197F1F79C838B838D819E8166
:1027700001979E838D838D819E81009769F714C098
:102780006F81788589859A850E944900DC01CB019B
:102790009E838D838D819E819A83898389819A818D
:1027A0000197F1F79A83898380E80E940414FE015F
:1027B000E95BFF4F8083FE01E95BFF4F8081813041
:1027C00041F0FE01E95BFF4F808129968FAF299789
:1027D0000CC0FE01E95BFF4F81E08083FE01E95BF5
:1027E000FF4F808129968FAF299729968FAD299722
:1027F000C85BDF4F0FB6F894DEBF0FBECDBFCF91E1
:10280000DF911F910F910895DF93CF9300D00F9226
:10281000CDB7DEB78A83198281E066E040E00E948E
:10282000F00A89838981813019F089818B83AEC058
:1028300081E064E040E00E94F00A89838981813070
:1028400019F089818B83A2C081E065E040E00E949D
:10285000F00A89838981813019F089818B8396C040
:102860008A81982F991F9927991F80E060E0492F4E
:102870000E94F00A89838981813019F089818B83D4
:1028800085C08A818295869586958370982F9170F0
:1028900080E061E0492F0E94F00A898389818130BC
:1028A00019F089818B8372C08A81829586958770A1
:1028B000982F917080E062E0492F0E94F00A89838E
:1028C0008981813019F089818B8360C08A818295EA
:1028D0008F70982F917080E063E0492F0E94F00A7A
:1028E00089838981813019F089818B834FC08A81E6
:1028F000869586958695982F917080E064E0492FA3
:102900000E94F00A89838981813019F089818B8343
:102910003DC08A8186958695982F917080E065E00C
:10292000492F0E94F00A89838981813019F08981B9
:102930008B832CC08A818695982F917080E066E009
:10294000492F0E94F00A89838981813019F0898199
:102950008B831CC08A81982F917080E067E0492F9B
:102960000E94F00A89838981813019F089818B83E3
:102970000DC00E94CD1489838981813019F089812D
:102980008B8304C081E0898389818B838B810F9045
:102990000F900F90CF91DF910895DF93CF93CDB734
:1029A000DEB76E970FB6F894DEBF0FBECDBF1D8E9B
:1029B00081E064E041E00E94F00A8D8F8D8D8130CE
:1029C00019F08D8D8E8FF4C080E090E0A0E0B0E42F
:1029D000898F9A8FAB8FBC8F698D7A8D8B8D9C8DF3
:1029E00020E030E04AE753E40E941F02DC01CB0103
:1029F0008D8B9E8BAF8BB88F6D897E898F89988DDB
:102A000020E030E040E85FE30E94550488232CF486
:102A100081E090E09C8B8B8B3FC06D897E898F8994
:102A2000988D20E03FEF4FE757E40E94F50318161A
:102A30004CF5698D7A8D8B8D9C8D20E030E040E2E5
:102A400051E40E941F02DC01CB01BC01CD010E94B8
:102A50004900DC01CB019C8B8B8B0FC089E190E09E
:102A60009A8B898B89899A890197F1F79A8B898B3F
:102A70008B899C8901979C8B8B8B8B899C89009778
:102A800069F714C06D897E898F89988D0E944900ED
:102A9000DC01CB019C8B8B8B8B899C89988B8F87DE
:102AA0008F8598890197F1F7988B8F8781E064E093
:102AB00040E00E94F00A8D8F8D8D813019F08D8D50
:102AC0008E8F76C080E090E0A0EAB0E48B879C8790
:102AD000AD87BE876B857C858D859E8520E030E047
:102AE0004AE753E40E941F02DC01CB018F839887E1
:102AF000A987BA876F81788589859A8520E030E03B
:102B000040E85FE30E94550488232CF481E090E0C4
:102B10009E838D833FC06F81788589859A8520E06B
:102B20003FEF4FE757E40E94F50318164CF56B850D
:102B30007C858D859E8520E030E040E251E40E9456
:102B40001F02DC01CB01BC01CD010E944900DC0168
:102B5000CB019E838D830FC089E190E09C838B83A2
:102B60008B819C810197F1F79C838B838D819E8162
:102B700001979E838D838D819E81009769F714C094
:102B80006F81788589859A850E944900DC01CB0197
:102B90009E838D838D819E819A83898389819A8189
:102BA0000197F1F79A83898381E08D8F8D8D8E8FC8
:102BB0008E8D6E960FB6F894DEBF0FBECDBFCF914F
:102BC000DF910895DF93CF9300D0CDB7DEB78A832E
:102BD00019828A810E94F315898389810F900F9051
:102BE000CF91DF910895DF93CF9300D00F92CDB7AF
:102BF000DEB78A83198281E066E041E00E94F00A34
:102C000089838981813019F089818B83ACC081E00F
:102C100064E040E00E94F00A89838981813019F0E4
:102C200089818B83A0C081E065E040E00E94F00ACA
:102C300089838981813019F089818B8394C08A814D
:102C4000982F991F9927991F80E060E0492F0E94D3
:102C5000F00A89838981813019F089818B8383C04F
:102C60008A818295869586958370982F917080E0F1
:102C700061E0492F0E94F00A89838981813019F02F
:102C800089818B8370C08A81829586958770982F01
:102C9000917080E062E0492F0E94F00A8983898167
:102CA000813019F089818B835EC08A8182958F7013
:102CB000982F917080E063E0492F0E94F00A898389
:102CC0008981813019F089818B834DC08A818695F5
:102CD00086958695982F917080E064E0492F0E9438
:102CE000F00A89838981813019F089818B833BC007
:102CF0008A8186958695982F917080E065E0492FAE
:102D00000E94F00A89838981813019F089818B833F
:102D10002AC08A818695982F917080E066E0492FBD
:102D20000E94F00A89838981813019F089818B831F
:102D30001AC08A81982F917080E067E0492F0E9425
:102D4000F00A89838981813019F089818B830BC0D6
:102D50000E94CD1489838981813019F089818B8308
:102D600002C089818B838B810F900F900F90CF9140
:102D7000DF910895DF93CF9300D0CDB7DEB78A837C
:102D800019828A810E940414898389810F900F908F
:102D9000CF91DF910895DF93CF9300D00F92CDB7FD
:102DA000DEB79B838A8319828A819B810E94E01609
:102DB000898389810F900F900F90CF91DF910895B3
:102DC000DF93CF9300D000D0CDB7DEB79B838A834B
:102DD00019828A819B810097D1F0EA81FB818081F1
:102DE000882391F0EA81FB8180810E94F315898319
:102DF0008981813019F089818C830DC08A819B8102
:102E000001969B838A83E9CF81E0898302C082E0B7
:102E1000898389818C838C810F900F900F900F9004
:102E2000CF91DF910895DF93CF9300D000D00F9220
:102E3000CDB7DEB78B836C831A828B81833070F5BC
:102E40008B81882359F18C81813140F58C818823D5
:102E500029F119828B81813079F480E88983998105
:102E60008C81890F81500E9404148A838A81813069
:102E7000B9F08A818D8316C08B81823089F480EC11
:102E8000898399818C81890F81500E9404148A83DF
:102E90008A81813029F08A818D8304C083E08A830E
:102EA0008A818D838D810F900F900F900F900F90DE
:102EB000CF91DF910895DF93CF9300D000D00F9290
:102EC000CDB7DEB76A837B838C839D8319828A8129
:102ED0009B81AC81BD81BC01CD010E9479178983A2
:102EE00089810F900F900F900F900F90CF91DF91ED
:102EF00008950F931F93DF93CF93CDB7DEB76197FC
:102F00000FB6F894DEBF0FBECDBF6D877E878F876B
:102F1000988B1A828D859E85AF85B889BB23CCF4AA
:102F20008DE20E94F3158A838A81813019F08A81AB
:102F3000898B77C08D859E85AF85B889B095A09522
:102F4000909581959F4FAF4FBF4F8D879E87AF87DD
:102F5000B88B19828D859E85AF85B8890097A105AC
:102F6000B105C9F580E30E94F3158A838A81813017
:102F700009F453C08A81898B54C08981082F10E0DD
:102F80008D859E85AF85B8892AE030E040E050E02D
:102F9000BC01CD010E94FB21DC01CB01282F205D6B
:102FA000CE010396FC01E00FF11F208389818F5F22
:102FB00089838D859E85AF85B8892AE030E040E021
:102FC00050E0BC01CD010E94FB21DA01C9018D87CF
:102FD0009E87AF87B88B8D859E85AF85B88918167B
:102FE00019061A061B064CF215C089818150898387
:102FF0008981282F30E0CE010396FC01E20FF31FF8
:1030000080810E94F3158A838A81813019F08A8138
:10301000898B07C08981882341F781E08A838A816F
:10302000898B898961960FB6F894DEBF0FBECDBF3C
:10303000CF91DF911F910F910895DF93CF93CDB77B
:10304000DEB72E970FB6F894DEBF0FBECDBF6A87EE
:103050007B878C879D8719866A857B858C859D8576
:1030600020E030E040E050E00E94550488239CF4CA
:103070008DE20E94F31589878985813019F0898551
:103080008E87ABC08A859B85AC85BD85B0588A8705
:103090009B87AC87BD876A857B858C859D850E94D3
:1030A0004900DC01CB0198878F838F819885CC0103
:1030B000A0E0B0E0BC01CD010E9479178987898525
:1030C000813019F089858E8788C08F819885CC01E1
:1030D000A0E0B0E0BC01CD010E9467059B01AC01FE
:1030E0006A857B858C859D850E94C101DC01CB01B1
:1030F0008B839C83AD83BE836B817C818D819E811C
:1031000020E030E040E050E00E94C503882319F43D
:1031100089858E8762C08EE20E94F3158987898532
:10312000813019F089858E8758C06B817C818D81B3
:103130009E8127E137EB41E558E30E94F201DC0173
:10314000CB018B839C83AD83BE831A8240C06B818D
:103150007C818D819E8120E030E040E251E40E943C
:103160001F02DC01CB018B839C83AD83BE836B810B
:103170007C818D819E810E944900DC01CB01898385
:103180008981805D0E94F31589878985813019F0D6
:1031900089858E8722C08981882F90E0AA2797FD94
:1031A000A095BA2FBC01CD010E94B5049B01AC01D2
:1031B0006B817C818D819E810E94C101DC01CB01EC
:1031C0008B839C83AD83BE838A818F5F8A838A8150
:1031D000843008F4BCCF89858E878E852E960FB6F5
:1031E000F894DEBF0FBECDBFCF91DF910895DF937E
:1031F000CF9300D000D000D0CDB7DEB78B837D83D6
:103200006C831A828C819D81009709F43EC08B816A
:103210008830C0F519828B81882F90E00896880F3E
:10322000991F880F991F880F991F0E9404148A8381
:103230008A81813019F08A818E832BC0198215C052
:103240008981282F30E08C819D81FC01E20FF31FE2
:1032500080810E94F3158A838A81813019F08A81E6
:103260008E8317C089818F5F89838981883040F37D
:1032700080E80E9404148A838A81813041F08A8127
:103280008E8307C083E08A8302C082E08A838A81BA
:103290008E838E8126960FB6F894DEBF0FBECDBF0B
:1032A000CF91DF910895DF93CF930F92CDB7DEB723
:1032B000198281E00E940414898389810F90CF9143
:1032C000DF910895DF93CF930F92CDB7DEB71982C8
:1032D0008DE00E940414898389810F90CF91DF9142
:1032E0000895DF93CF9300D0CDB7DEB7198283E086
:1032F00060E041E00E94040A89838981813019F0ED
:1033000089818A83B6C083E061E041E00E94040ABB
:1033100089838981813019F089818A83AAC083E0F9
:1033200062E041E00E94040A89838981813019F0BA
:1033300089818A839EC083E063E041E00E94040AA1
:1033400089838981813019F089818A8392C083E0E1
:1033500060E041E00E94F00A89838981813019F0A0
:1033600089818A8386C083E061E041E00E94F00A9F
:1033700089838981813019F089818A837AC083E0C9
:1033800062E041E00E94F00A89838981813019F06E
:1033900089818A836EC083E063E041E00E94F00A85
:1033A00089838981813019F089818A8362C082E0B2
:1033B00060E040E00E94040A89838981813019F02D
:1033C00089818A8356C082E061E040E00E94040A5D
:1033D00089838981813019F089818A834AC082E09A
:1033E00062E040E00E94040A89838981813019F0FB
:1033F00089818A833EC082E063E040E00E94040A43
:1034000089838981813019F089818A8332C082E081
:1034100060E041E00E94F00A89838981813019F0DF
:1034200089818A8326C082E061E041E00E94F00A3F
:1034300089838981813019F089818A831AC082E069
:1034400062E041E00E94F00A89838981813019F0AD
:1034500089818A830EC082E063E041E00E94F00A25
:1034600089838981813019F089818A8302C08981A9
:103470008A838A810F900F90CF91DF910895DF9317
:10348000CF93CDB7DEB727970FB6F894DEBF0FBE48
:10349000CDBF9E838D831B82ED81FE818FEF808364
:1034A0001A8219821A8298C08A81882F90E0FC01C2
:1034B000E454FE4F20818A81882F90E0FC01E8547B
:1034C000FE4F9081822F692F40E00E94F00A8B838B
:1034D0008B81813019F08B818F8384C019825BC00E
:1034E0008981882F90E0FC01EC54FE4F4081898156
:1034F000882F90E0FC01E055FE4F90819E012C5FEB
:103500003F4F842F692FA9010E94960D8B838B81D9
:10351000813019F08B818F8365C08C818823C1F540
:103520008981482F50E08A81282F30E0CA01880F16
:10353000991F880F991F820F931FFC01E056FE4FC1
:103540008081ED81FE8180831DC08981882F90E07C
:10355000FC01EC54FE4F40818981882F90E0FC01F2
:10356000E055FE4F90819E012C5F3F4F842F692FC5
:10357000A9010E94960D8B838B81813019F08B817C
:103580008F8330C08C81882301F38B818F832AC085
:1035900089818F5F89838981843008F4A1CF8A81F2
:1035A000882F90E0FC01E454FE4F20818A81882F0F
:1035B00090E0FC01E854FE4F9081822F692F41E09A
:1035C0000E94F00A8B838B81813019F08B818F836D
:1035D00009C08A818F5F8A838A81843008F464CF2E
:1035E0008B818F838F8127960FB6F894DEBF0FBE35
:1035F000CDBFCF91DF910895EF92FF920F931F936C
:10360000DF93CF93CDB7DEB7C555D0400FB6F89452
:10361000DEBF0FBECDBF0E94711988EC91E00E9401
:103620003F1A8091C8018336C1F70E94251081E0BE
:1036300065E00E94131780E690E00E94CB1680E0C0
:1036400090E0AAE7B4E48B879C87AD87BE876B8543
:103650007C858D859E8520E030E04AE753E40E941A
:103660001F02DC01CB018F839887A987BA876F81FE
:10367000788589859A8520E030E040E85FE30E9404
:10368000550488232CF481E090E09E838D833FC015
:103690006F81788589859A8520E03FEF4FE757E471
:1036A0000E94F50318164CF56B857C858D859E85EB
:1036B00020E030E040E251E40E941F02DC01CB0137
:1036C000BC01CD010E944900DC01CB019E838D83AA
:1036D0000FC089E190E09C838B838B819C81019753
:1036E000F1F79C838B838D819E8101979E838D83CF
:1036F0008D819E81009769F714C06F8178858985D7
:103700009A850E944900DC01CB019E838D838D81C7
:103710009E819A83898389819A810197F1F79A839F
:1037200089830E9453190E94621989EC91E00E94DA
:10373000340E8AED91E00E94340E8FEF8093C80121
:1037400088EC91E00E943F1A8091C8018F3FC1F33D
:103750008091C7018F3021F48091C8018D3369F7C2
:103760008091C8010E94E2158091C7018F5F80930C
:10377000C7018091C801282F30E066963FAF2EAF79
:10378000669766968EAD9FAD66978A33910534F540
:1037900066962EAD3FAD66972033310584F566966B
:1037A0008EAD9FAD66978A3291053CF266962EAD3E
:1037B0003FAD66972C3231050CF4A2C066968EADF3
:1037C0009FAD66978D32910549F166962EAD3FAD5E
:1037D00066972F32310509F493C0AFCF66968EAD50
:1037E0009FAD66978D33910509F4B5C066962EADF1
:1037F0003FAD66972336310509F4AEC59ECF3091B3
:10380000C401832F90E02091C801FC01E553FE4FD5
:103810002083832F8F5F8093C4018FCF8091C40159
:10382000882359F08091C401882F90E00197FC0112
:10383000E553FE4F8081803279F43091C401832FAB
:1038400090E02091C801FC01E553FE4F2083832FB7
:103850008F5F8093C40171CF8091C401882F90E065
:103860000197FC01E553FE4F80818D32F1F4809188
:10387000C501082F10E08F5F8093C5018091C801BA
:10388000882F90E0A0E0B0E0BC01CD010E94670568
:103890009B01AC01E091DA01F091DB01C801BA01B2
:1038A000A9019F010E944F0E48CF2091C401822F91
:1038B00090E0FC01E553FE4F80E28083822F8F5F12
:1038C0008093C4018091C501082F10E08F5F809321
:1038D000C5018091C801882F90E0A0E0B0E0BC0154
:1038E000CD010E9467059B01AC01E091DA01F091E6
:1038F000DB01C801BA01A9019F010E944F0E1DCF33
:103900002091C401822F90E0FC01E553FE4F80E23C
:103910008083822F8F5F8093C4018091C501082F1F
:1039200010E08F5F8093C5018091C801882F90E0DF
:10393000A0E0B0E0BC01CD010E9467059B01AC0195
:10394000E091DA01F091DB01C801BA01A9019F0100
:103950000E944F0EF2CE8091C401882F90E0FC01AE
:10396000E553FE4F10821092C4011092C501B8C0F9
:103970001BA21CA21DA21EA28091C401882F90E050
:10398000FC01E553FE4F80818D3209F046C08091E5
:10399000C0019091C101A091C201B091C301B09545
:1039A000A095909581959F4FAF4FBF4F8093C001D9
:1039B0009093C101A093C201B093C3018091C4014F
:1039C0008F5F8093C40129C08BA19CA1ADA1BEA132
:1039D0002AE030E040E050E0BC01CD010E94DC2153
:1039E0009B01AC016091C401862F90E0FC01E5537E
:1039F000FE4F8081882F90E0C097AA2797FDA09561
:103A0000BA2F820F931FA41FB51F8BA39CA3ADA336
:103A1000BEA3862F8F5F8093C4018091C401882F3D
:103A200090E0FC01E553FE4F8081803350F080919F
:103A3000C401882F90E0FC01E553FE4F80818A335A
:103A400018F28091C401882F90E00197FC01E553A2
:103A5000FE4F8081803249F18091C601082F10E02D
:103A60008F5F8093C6018091C0019091C101A091A8
:103A7000C201B091C3012BA13CA14DA15EA1BC012B
:103A8000CD010E94DC21DC01CB01BC01CD010E94F3
:103A9000B5049B01AC01E091C901F091CA01C801D4
:103AA000BA01A9019F010E944F0E81E090E0A0E0C1
:103AB000B0E08093C0019093C101A093C201B09384
:103AC000C3018091C401882F90E0FC01E553FE4FB3
:103AD0008081803229F48091C4018F5F8093C4017A
:103AE0008091C401882F90E0FC01E553FE4F808156
:103AF000882309F03DCF82E061E00E941317809196
:103B0000C9019091CA010E946D0F8C018091DA0168
:103B10009091DB010E946D0F01960817190799F12A
:103B200089E690E00E94CB168CE00E94BA1688ECE1
:103B300091E00E943F1A8091C8018F3FC1F310921B
:103B4000C7011092C4011092C5011092C6010E94D3
:103B500053198AED91E00E94D80F89EC91E00E9400
:103B6000D80F1AA20AC08AA1882F90E0FC01E55361
:103B7000FE4F10828AA18F5F8AA38AA18A3098F3B0
:103B80000E946219DACD1FA28FA1882F90E0409188
:103B9000DA015091DB019E01245D3F4FB9010E9483
:103BA0007D0F8CA59DA5AEA5BFA5BC01CD0120E0D4
:103BB00030E048E252E40E94C503882309F059C06E
:103BC0008FA1882F90E04091C9015091CA019E01B8
:103BD000205D3F4FB9010E947D0F8FA1882F90E09B
:103BE00001964091C9015091CA019E012C5C3F4F42
:103BF000B9010E947D0F88A999A9AAA9BBA92CA9DE
:103C00003DA94EA95FA9BC01CD010E941F02DC01A4
:103C1000CB0188AB99ABAAABBBAB8FA1882F90E04F
:103C200028A939A94AA95BA9E091C901F091CA0163
:103C3000BA01A9019F010E94A90F8FA1882F90E0CE
:103C400001964091C9015091CA019E012C5C3F4FE1
:103C5000B9010E94DD0E8FA1882F90E04091DA011A
:103C60005091DB019E01245D3F4FB9010E94DD0EA2
:103C7000ACC08CA59DA5AEA5BFA5BC01CD0120E023
:103C800030E04CE352E40E94C503882309F09AC057
:103C90008FA1882F90E04091C9015091CA019E01E7
:103CA000285C3F4FB9010E947D0F8FA1882F90E0C3
:103CB00001964091C9015091CA019E01245C3F4F79
:103CC000B9010E947D0F8CAD9DADAEADBFADBC0105
:103CD000CD0120E030E040E050E00E94C5038823A1
:103CE00099F58AE790E00E94CB168CE00E94BA1604
:103CF00088EC91E00E943F1A8091C8018F3FC1F388
:103D00001092C7011092C4011092C5011092C60111
:103D10000E9453198AED91E00E94D80F89EC91E03E
:103D20000E94D80F18A20AC088A1882F90E0FC0139
:103D3000E553FE4F108288A18F5F88A388A18A3047
:103D400098F30E946219F9CC88AD99ADAAADBBADCC
:103D50002CAD3DAD4EAD5FADBC01CD010E94190350
:103D6000DC01CB0188AF99AFAAAFBBAF8FA1882F81
:103D700090E028AD39AD4AAD5BADE091C901F0915D
:103D8000CA01BA01A9019F010E94A90F8FA1882F22
:103D900090E001964091C9015091CA019E01245CB6
:103DA0003F4FB9010E94DD0E8FA1882F90E0409116
:103DB000DA015091DB019E01245D3F4FB9010E9461
:103DC000DD0E03C08FA18F5F8FA319A21F8E2FC09E
:103DD0008F8D882F90E04091DA015091DB019E0198
:103DE000245D3F4FB9010E947D0F8CA59DA5AEA516
:103DF000BFA5BC01CD0120E030E048E252E40E94C2
:103E0000C503882371F08CA59DA5AEA5BFA5BC01F7
:103E1000CD0120E030E04CE352E40E94C50388234A
:103E200019F481E089A30FC08F8D8F5F8F8F8F8DE5
:103E3000082F10E08091DA019091DB010E946D0F54
:103E4000081719072CF289A1882309F09DCE1FA21B
:103E50008FA1882F90E04091DA015091DB019E0103
:103E6000205C3F4FB9010E947D0FFE01E05CFF4FD7
:103E700080819181A281B381BC01CD0120E030E03D
:103E80004CE252E40E94C503882309F065C08FA16B
:103E9000882F90E04091C9015091CA019E012C5B8E
:103EA0003F4FB9010E947D0F8FA1882F90E00196AE
:103EB0004091C9015091CA019E01285B3F4FB90151
:103EC0000E947D0FFE01EC5BFF4F80819181A281FA
:103ED000B381FE01E85BFF4F208131814281538134
:103EE000BC01CD010E94F201DC01CB01FE01EC5BC3
:103EF000FF4F80839183A283B3838FA1882F90E0AB
:103F0000FE01EC5BFF4F2081318142815381E091C2
:103F1000C901F091CA01BA01A9019F010E94A90F2C
:103F20008FA1882F90E001964091C9015091CA015C
:103F30009E01285B3F4FB9010E94DD0E8FA1882FA3
:103F400090E04091DA015091DB019E01205C3F4FEF
:103F5000B9010E94DD0E7AC0FE01E05CFF4F808156
:103F60009181A281B381BC01CD0120E030E044E326
:103F700052E40E94C503882309F065C08FA1882FF1
:103F800090E04091C9015091CA019E01245B3F4FCE
:103F9000B9010E947D0F8FA1882F90E0019640917A
:103FA000C9015091CA019E01205B3F4FB9010E9497
:103FB0007D0FFE01E45BFF4F80819181A281B3817F
:103FC000FE01E05BFF4F2081318142815381BC01C2
:103FD000CD010E94C101DC01CB01FE01E45BFF4F7A
:103FE00080839183A283B3838FA1882F90E0FE0109
:103FF000E45BFF4F2081318142815381E091C9010F
:10400000F091CA01BA01A9019F010E94A90F8FA1D5
:10401000882F90E001964091C9015091CA019E01FC
:10402000205B3F4FB9010E94DD0E8FA1882F90E0E9
:104030004091DA015091DB019E01205C3F4FB901B4
:104040000E94DD0E03C08FA18F5F8FA38091DA01E4
:104050009091DB010E946D0F009709F0F9CE40911D
:10406000C9015091CA019E01285D3F4F80E090E058
:10407000B9010E947D0F88A599A5AAA5BBA5BC0181
:10408000CD0120E03FEF4FE757E40E94850418166A
:104090000CF42FC188A599A5AAA5BBA5BC01CD018B
:1040A0000E941305DC01CB018B8F9C8FAD8FBE8FDF
:1040B000E8A4F9A40AA51BA56B8D7C8D8D8D9E8D22
:1040C0000E94B5049B01AC01C801B7010E94C10167
:1040D000DC01CB018F8B988FA98FBA8F88A599A50A
:1040E000AAA5BBA5BC01CD010E941305DC01CB0133
:1040F0008B8B9C8BAD8BBE8B1A8A8B899C89AD89EF
:10410000BE890097A105B105C1F481E08A8B1DC06D
:104110008B899C89AD89BE892AE030E040E050E07F
:10412000BC01CD010E94FB21DA01C9018B8B9C8B64
:10413000AD8BBE8B8A898F5F8A8B8B899C89AD8979
:10414000BE890097A105B10519F76F89788D898D12
:104150009A8D20E030E040E050E00E94C5038823C3
:1041600011F588A599A5AAA5BBA5BC01CD0120E0A4
:1041700030E040E050E00E945504882354F480E190
:104180009A89382F391B932F82E0692F0E941317C9
:104190002BC081E19A89282F291B922F82E0692F59
:1041A0000E94131721C088A599A5AAA5BBA5BC018B
:1041B000CD0120E030E040E050E00E94550488232B
:1041C00054F48BE09A89382F391B932F82E0692FA2
:1041D0000E94131709C08CE09A89282F291B922F5F
:1041E00082E0692F0E94131788A599A5AAA5BBA5EF
:1041F000BC01CD010E941D188CE00E94BA1688EC0B
:1042000091E00E943F1A8091C8018F3FC1F3109244
:10421000C7011092C4011092C5011092C6010E94FC
:1042200053198AED91E00E94D80F89EC91E00E9429
:10423000D80F198A0AC08989882F90E0FC01E553BC
:10424000FE4F108289898F5F898B89898A3098F324
:104250008091C8018B3261F08091C8018D3241F0AC
:104260008091C8018A3221F08091C8018F32F1F526
:104270008091C601682F70E08F5F8093C60128A5EA
:1042800039A54AA55BA5E091C901F091CA01CB010E
:10429000BA01A9019F010E944F0E8091C501082F0C
:1042A00010E08F5F8093C5018091C801882F90E056
:1042B000A0E0B0E0BC01CD010E9467059B01AC010C
:1042C000E091DA01F091DB01C801BA01A9019F0177
:1042D0000E944F0E88A599A5AAA5BBA5BC01CD013A
:1042E0000E941D188091C8010E94E2150E94621967
:1042F00024CA85E890E00E94CB168CE00E94BA1692
:1043000088EC91E00E943F1A8091C8018F3FC1F371
:104310001092C7011092C4011092C5011092C601FB
:104320000E9453198AED91E00E94D80F89EC91E028
:104330000E94D80F188A0AC08889882F90E0FC0153
:10434000E553FE4F108288898F5F888B88898A3079
:1043500098F30E946219F1C91092C7011092C4012A
:104360001092C5011092C60181E090E0A0E0B0E09B
:104370008093C0019093C101A093C201B093C30187
:104380000E9453198AED91E00E94D80F89EC91E0C8
:104390000E94D80F1F860AC08F85882F90E0FC01ED
:1043A000E553FE4F10828F858F5F8F878F858A3010
:1043B00098F30E946219C1C9629FD001739FF001F6
:1043C000829FE00DF11D649FE00DF11D929FF00DA5
:1043D000839FF00D749FF00D659FF00D9927729FDC
:1043E000B00DE11DF91F639FB00DE11DF91FBD0167
:1043F000CF011124089597FB092E05260ED057FDF5
:1044000004D014D00AD0001C38F450954095309553
:1044100021953F4F4F4F5F4F0895F6F79095809548
:10442000709561957F4F8F4F9F4F0895A1E21A2E8F
:10443000AA1BBB1BFD010DC0AA1FBB1FEE1FFF1F48
:10444000A217B307E407F50720F0A21BB30BE40B98
:10445000F50B661F771F881F991F1A9469F76095DF
:104460007095809590959B01AC01BD01CF01089599
:104470002F923F924F925F926F927F928F929F9274
:10448000AF92BF92CF92DF92EF92FF920F931F9362
:10449000CF93DF93CDB7DEB7CA1BDB0B0FB6F89413
:1044A000DEBF0FBECDBF09942A88398848885F8453
:1044B0006E847D848C849B84AA84B984C884DF80C4
:1044C000EE80FD800C811B81AA81B981CE0FD11DA8
:1044D0000FB6F894DEBF0FBECDBFED010895CF93A8
:1044E000DF93BC018230910510F462E070E0A0918E
:1044F000DE01B091DF01ED01E0E0F0E040E050E0EE
:1045000021C0888199818617970769F48A819B81E8
:10451000309719F09383828304C09093DF018093D6
:10452000DE01FE0134C06817790738F441155105E2
:1045300019F08417950708F4AC01FE018A819B816C
:104540009C01E9012097E9F641155105A9F1CA013D
:10455000861B970B049708F4BA01E0E0F0E02AC04C
:104560008D919C91119784179507F9F4641775073D
:1045700081F412968D919C911397309719F0938343
:10458000828304C09093DF018093DE01FD013296A7
:104590004FC0CA01861B970BFD01E80FF91F6193FD
:1045A000719302978D939C9343C0FD018281938107
:1045B0009C01D9011097A1F68091DC019091DD0159
:1045C000892B41F480919C0190919D019093DD0194
:1045D0008093DC0140919E0150919F01411551054E
:1045E00041F44DB75EB780919A0190919B01481BB1
:1045F000590B2091DC013091DD0124173507B0F40F
:10460000CA01821B930B8617970780F0AB014E5FA0
:104610005F4F8417950750F0420F531F5093DD01F1
:104620004093DC01F9016193719302C0E0E0F0E096
:10463000CF01DF91CF910895CF93DF93009709F4D5
:1046400050C0EC0122971B821A82A091DE01B0912A
:10465000DF01109709F140E050E0AC17BD0708F109
:10466000BB83AA83FE0121913191E20FF31FAE17A4
:10467000BF0779F48D919C911197280F391F2E5FF8
:104680003F4F3983288312968D919C9113979B837A
:104690008A834115510571F4D093DF01C093DE0187
:1046A00020C012968D919C911397AD01009711F047
:1046B000DC01D3CFFA01D383C28321913191E20F80
:1046C000F31FCE17DF0769F488819981280F391FFE
:1046D0002E5F3F4FFA01318320838A819B81938330
:0C46E0008283DF91CF910895F894FFCF02
:1046EC0057454C434F4D45210057726F6E672065FF
:1046FC00787072657373696F6E004D6174682065B4
:10470C0072726F72004F7574206F662072616E67E3
:10471C00650000000000000000000001020203031D
:10472C000303040404040404040405050505050539
:10473C000505050505050505050506060606060617
:10474C0006060606060606060606060606060606FD
:10475C0006060606060606060606070707070707E7
:10476C0007070707070707070707070707070707CD
:10477C0007070707070707070707070707070707BD
:10478C0007070707070707070707070707070707AD
:10479C000707070707070707070708080808080897
:1047AC00080808080808080808080808080808087D
:1047BC00080808080808080808080808080808086D
:1047CC00080808080808080808080808080808085D
:1047DC00080808080808080808080808080808084D
:1047EC00080808080808080808080808080808083D
:1047FC00080808080808080808080808080808082D
:10480C00080808080808080808080808080808081C
:10481C00080808080808080808082000E00100003B
:10482C003738392F3435362A3132332D63303D2B1E
:10483C00000102030202020200010203030303034C
:04484C000100000067
:00000001FF
